{
  "_format": "hh-sol-artifact-1",
  "contractName": "AchievementTracker",
  "sourceName": "contracts/AchievementTracker.sol",
  "abi": [
    {
      "inputs": [
        {
          "internalType": "address",
          "name": "_gameToken",
          "type": "address"
        },
        {
          "internalType": "address",
          "name": "_characterNFT",
          "type": "address"
        }
      ],
      "stateMutability": "nonpayable",
      "type": "constructor"
    },
    {
      "inputs": [
        {
          "internalType": "address",
          "name": "owner",
          "type": "address"
        }
      ],
      "name": "OwnableInvalidOwner",
      "type": "error"
    },
    {
      "inputs": [
        {
          "internalType": "address",
          "name": "account",
          "type": "address"
        }
      ],
      "name": "OwnableUnauthorizedAccount",
      "type": "error"
    },
    {
      "inputs": [],
      "name": "ReentrancyGuardReentrantCall",
      "type": "error"
    },
    {
      "anonymous": false,
      "inputs": [
        {
          "indexed": true,
          "internalType": "uint256",
          "name": "achievementId",
          "type": "uint256"
        },
        {
          "indexed": false,
          "internalType": "string",
          "name": "name",
          "type": "string"
        },
        {
          "indexed": false,
          "internalType": "uint8",
          "name": "tier",
          "type": "uint8"
        }
      ],
      "name": "AchievementAdded",
      "type": "event"
    },
    {
      "anonymous": false,
      "inputs": [
        {
          "indexed": true,
          "internalType": "address",
          "name": "player",
          "type": "address"
        },
        {
          "indexed": true,
          "internalType": "uint256",
          "name": "achievementId",
          "type": "uint256"
        },
        {
          "indexed": false,
          "internalType": "uint256",
          "name": "xpReward",
          "type": "uint256"
        },
        {
          "indexed": false,
          "internalType": "uint256",
          "name": "tokenReward",
          "type": "uint256"
        }
      ],
      "name": "AchievementUnlocked",
      "type": "event"
    },
    {
      "anonymous": false,
      "inputs": [
        {
          "indexed": true,
          "internalType": "address",
          "name": "account",
          "type": "address"
        }
      ],
      "name": "AuthorizedAddressAdded",
      "type": "event"
    },
    {
      "anonymous": false,
      "inputs": [
        {
          "indexed": true,
          "internalType": "address",
          "name": "account",
          "type": "address"
        }
      ],
      "name": "AuthorizedAddressRemoved",
      "type": "event"
    },
    {
      "anonymous": false,
      "inputs": [
        {
          "indexed": true,
          "internalType": "address",
          "name": "previousOwner",
          "type": "address"
        },
        {
          "indexed": true,
          "internalType": "address",
          "name": "newOwner",
          "type": "address"
        }
      ],
      "name": "OwnershipTransferred",
      "type": "event"
    },
    {
      "anonymous": false,
      "inputs": [
        {
          "indexed": true,
          "internalType": "address",
          "name": "player",
          "type": "address"
        },
        {
          "indexed": true,
          "internalType": "uint256",
          "name": "achievementId",
          "type": "uint256"
        },
        {
          "indexed": false,
          "internalType": "uint256",
          "name": "progress",
          "type": "uint256"
        }
      ],
      "name": "ProgressUpdated",
      "type": "event"
    },
    {
      "inputs": [],
      "name": "achievementBadge",
      "outputs": [
        {
          "internalType": "contract IAchievementBadge",
          "name": "",
          "type": "address"
        }
      ],
      "stateMutability": "view",
      "type": "function"
    },
    {
      "inputs": [
        {
          "internalType": "uint256",
          "name": "",
          "type": "uint256"
        }
      ],
      "name": "achievements",
      "outputs": [
        {
          "internalType": "uint256",
          "name": "achievementId",
          "type": "uint256"
        },
        {
          "internalType": "string",
          "name": "name",
          "type": "string"
        },
        {
          "internalType": "string",
          "name": "description",
          "type": "string"
        },
        {
          "internalType": "string",
          "name": "category",
          "type": "string"
        },
        {
          "internalType": "uint8",
          "name": "tier",
          "type": "uint8"
        },
        {
          "internalType": "uint256",
          "name": "xpReward",
          "type": "uint256"
        },
        {
          "internalType": "uint256",
          "name": "tokenReward",
          "type": "uint256"
        },
        {
          "internalType": "bool",
          "name": "isActive",
          "type": "bool"
        },
        {
          "internalType": "uint256",
          "name": "unlockedCount",
          "type": "uint256"
        }
      ],
      "stateMutability": "view",
      "type": "function"
    },
    {
      "inputs": [
        {
          "internalType": "string",
          "name": "_name",
          "type": "string"
        },
        {
          "internalType": "string",
          "name": "_description",
          "type": "string"
        },
        {
          "internalType": "string",
          "name": "_category",
          "type": "string"
        },
        {
          "internalType": "uint8",
          "name": "_tier",
          "type": "uint8"
        },
        {
          "internalType": "uint256",
          "name": "_xpReward",
          "type": "uint256"
        },
        {
          "internalType": "uint256",
          "name": "_tokenReward",
          "type": "uint256"
        }
      ],
      "name": "addAchievement",
      "outputs": [],
      "stateMutability": "nonpayable",
      "type": "function"
    },
    {
      "inputs": [
        {
          "internalType": "address",
          "name": "authAddress",
          "type": "address"
        }
      ],
      "name": "addAuthorizedAddress",
      "outputs": [],
      "stateMutability": "nonpayable",
      "type": "function"
    },
    {
      "inputs": [],
      "name": "characterNFT",
      "outputs": [
        {
          "internalType": "contract IGameCharacter",
          "name": "",
          "type": "address"
        }
      ],
      "stateMutability": "view",
      "type": "function"
    },
    {
      "inputs": [],
      "name": "gameToken",
      "outputs": [
        {
          "internalType": "contract IGameToken",
          "name": "",
          "type": "address"
        }
      ],
      "stateMutability": "view",
      "type": "function"
    },
    {
      "inputs": [
        {
          "internalType": "address",
          "name": "_player",
          "type": "address"
        },
        {
          "internalType": "uint256",
          "name": "_achievementId",
          "type": "uint256"
        }
      ],
      "name": "getAchievementProgress",
      "outputs": [
        {
          "internalType": "uint256",
          "name": "",
          "type": "uint256"
        }
      ],
      "stateMutability": "view",
      "type": "function"
    },
    {
      "inputs": [
        {
          "internalType": "string",
          "name": "_category",
          "type": "string"
        }
      ],
      "name": "getAchievementsByCategory",
      "outputs": [
        {
          "components": [
            {
              "internalType": "uint256",
              "name": "achievementId",
              "type": "uint256"
            },
            {
              "internalType": "string",
              "name": "name",
              "type": "string"
            },
            {
              "internalType": "string",
              "name": "description",
              "type": "string"
            },
            {
              "internalType": "string",
              "name": "category",
              "type": "string"
            },
            {
              "internalType": "uint8",
              "name": "tier",
              "type": "uint8"
            },
            {
              "internalType": "uint256",
              "name": "xpReward",
              "type": "uint256"
            },
            {
              "internalType": "uint256",
              "name": "tokenReward",
              "type": "uint256"
            },
            {
              "internalType": "bool",
              "name": "isActive",
              "type": "bool"
            },
            {
              "internalType": "uint256",
              "name": "unlockedCount",
              "type": "uint256"
            }
          ],
          "internalType": "struct AchievementTracker.Achievement[]",
          "name": "",
          "type": "tuple[]"
        }
      ],
      "stateMutability": "view",
      "type": "function"
    },
    {
      "inputs": [
        {
          "internalType": "address",
          "name": "_player",
          "type": "address"
        }
      ],
      "name": "getPlayerAchievements",
      "outputs": [
        {
          "components": [
            {
              "internalType": "uint256",
              "name": "achievementId",
              "type": "uint256"
            },
            {
              "internalType": "uint256",
              "name": "unlockedAt",
              "type": "uint256"
            },
            {
              "internalType": "uint256",
              "name": "progress",
              "type": "uint256"
            },
            {
              "internalType": "bool",
              "name": "isUnlocked",
              "type": "bool"
            }
          ],
          "internalType": "struct AchievementTracker.PlayerAchievement[]",
          "name": "",
          "type": "tuple[]"
        }
      ],
      "stateMutability": "view",
      "type": "function"
    },
    {
      "inputs": [
        {
          "internalType": "address",
          "name": "authAddress",
          "type": "address"
        }
      ],
      "name": "isAuthorized",
      "outputs": [
        {
          "internalType": "bool",
          "name": "",
          "type": "bool"
        }
      ],
      "stateMutability": "view",
      "type": "function"
    },
    {
      "inputs": [],
      "name": "owner",
      "outputs": [
        {
          "internalType": "address",
          "name": "",
          "type": "address"
        }
      ],
      "stateMutability": "view",
      "type": "function"
    },
    {
      "inputs": [
        {
          "internalType": "address",
          "name": "",
          "type": "address"
        },
        {
          "internalType": "uint256",
          "name": "",
          "type": "uint256"
        }
      ],
      "name": "playerAchievements",
      "outputs": [
        {
          "internalType": "uint256",
          "name": "achievementId",
          "type": "uint256"
        },
        {
          "internalType": "uint256",
          "name": "unlockedAt",
          "type": "uint256"
        },
        {
          "internalType": "uint256",
          "name": "progress",
          "type": "uint256"
        },
        {
          "internalType": "bool",
          "name": "isUnlocked",
          "type": "bool"
        }
      ],
      "stateMutability": "view",
      "type": "function"
    },
    {
      "inputs": [
        {
          "internalType": "address",
          "name": "authAddress",
          "type": "address"
        }
      ],
      "name": "removeAuthorizedAddress",
      "outputs": [],
      "stateMutability": "nonpayable",
      "type": "function"
    },
    {
      "inputs": [],
      "name": "renounceOwnership",
      "outputs": [],
      "stateMutability": "nonpayable",
      "type": "function"
    },
    {
      "inputs": [
        {
          "internalType": "address",
          "name": "_badgeContract",
          "type": "address"
        }
      ],
      "name": "setAchievementBadge",
      "outputs": [],
      "stateMutability": "nonpayable",
      "type": "function"
    },
    {
      "inputs": [
        {
          "internalType": "uint256",
          "name": "_achievementId",
          "type": "uint256"
        },
        {
          "internalType": "bool",
          "name": "_isActive",
          "type": "bool"
        }
      ],
      "name": "setAchievementStatus",
      "outputs": [],
      "stateMutability": "nonpayable",
      "type": "function"
    },
    {
      "inputs": [],
      "name": "totalAchievements",
      "outputs": [
        {
          "internalType": "uint256",
          "name": "",
          "type": "uint256"
        }
      ],
      "stateMutability": "view",
      "type": "function"
    },
    {
      "inputs": [
        {
          "internalType": "address",
          "name": "newOwner",
          "type": "address"
        }
      ],
      "name": "transferOwnership",
      "outputs": [],
      "stateMutability": "nonpayable",
      "type": "function"
    },
    {
      "inputs": [
        {
          "internalType": "address",
          "name": "_player",
          "type": "address"
        },
        {
          "internalType": "uint256",
          "name": "_achievementId",
          "type": "uint256"
        },
        {
          "internalType": "uint256",
          "name": "_tokenId",
          "type": "uint256"
        }
      ],
      "name": "unlockAchievement",
      "outputs": [],
      "stateMutability": "nonpayable",
      "type": "function"
    },
    {
      "inputs": [
        {
          "internalType": "address",
          "name": "",
          "type": "address"
        }
      ],
      "name": "unlockedAchievementCount",
      "outputs": [
        {
          "internalType": "uint256",
          "name": "",
          "type": "uint256"
        }
      ],
      "stateMutability": "view",
      "type": "function"
    },
    {
      "inputs": [
        {
          "internalType": "address",
          "name": "_player",
          "type": "address"
        },
        {
          "internalType": "uint256",
          "name": "_achievementId",
          "type": "uint256"
        },
        {
          "internalType": "uint256",
          "name": "_progress",
          "type": "uint256"
        },
        {
          "internalType": "uint256",
          "name": "_tokenId",
          "type": "uint256"
        }
      ],
      "name": "updateProgress",
      "outputs": [],
      "stateMutability": "nonpayable",
      "type": "function"
    }
  ],
  "bytecode": "0x60c0346200010357601f62001bd738819003918201601f19168301916001600160401b038311848410176200010857808492604094855283398101031262000103576200005a602062000052836200011e565b92016200011e565b903315620000ea5760008054336001600160a01b0319821681178355604051946001600160a01b0394909385939192918416907f8be0079c531659141344cd1fd0a4f28419497f9722a3daafe3b4186f6b6457e09080a360018055166080521660a052611aa390816200013482396080518181816108810152611343015260a05181818161106c01526113c90152f35b604051631e4fbdf760e01b815260006004820152602490fd5b600080fd5b634e487b7160e01b600052604160045260246000fd5b51906001600160a01b0382168203620001035756fe6080604052600436101561001257600080fd5b600060e08135811c9081631f50ebe81461154657816327aed72e1461147a57816333f3c1c51461109b578163384d10ee1461105657816342f1181e14610fed578163537fb5eb14610e625781637071293914610dfc578163715018a614610da257816377f648b714610d7957816381e20b7b14610a795781638da5cb5b14610a525781639ce67bdd146108ce578163a61f9837146108b0578163c3dfdae61461086b578163d8ca1bef1461032357508063df999dfd146102b7578063e4ab8cec14610270578063e6f590fa14610237578063f078c22a146101f2578063f2fde38b146101625763fe9fbb801461010757600080fd5b3461015f57602036600319011261015f576020906001600160a01b038061012c611795565b16908183526007845260ff604084205416928315610152575b5050506040519015158152f35b5416149050388080610145565b80fd5b503461015f57602036600319011261015f5761017c611795565b610184611a41565b6001600160a01b039081169081156101d957600054826bffffffffffffffffffffffff60a01b821617600055167f8be0079c531659141344cd1fd0a4f28419497f9722a3daafe3b4186f6b6457e0600080a380f35b604051631e4fbdf760e01b815260048101849052602490fd5b503461015f57602036600319011261015f5761020c611795565b610214611a41565b60018060a01b03166bffffffffffffffffffffffff60a01b600254161760025580f35b503461015f57602036600319011261015f576020906040906001600160a01b0361025f611795565b168152600683522054604051908152f35b503461015f57604036600319011261015f576020906002906040906001600160a01b0361029b611795565b1681526005845281812060243582528452200154604051908152f35b503461015f57604036600319011261015f576080906040906001600160a01b036102df611795565b168152600560205281812060243582526020522080549060018101549060ff6003600283015492015416916040519384526020840152604083015215156060820152f35b9050346108675760c0366003190112610867576004356001600160401b038111610863576103559036906004016117b0565b6024356001600160401b03811161085f576103749036906004016117b0565b6044356001600160401b03811161085b576103939036906004016117b0565b6064359360ff85168503610857576103a9611a41565b6103b46003546118dd565b80600355604051926103c58461166b565b81845260208401948686526040850152606084015260ff8616608084015260843560a084015260a43560c08401526001828401528661010084015286526004602052604086209282518455518051906001600160401b0382116106af57819061043160018701546115ed565b601f8111610807575b50602090601f831160011461079857899261078d575b50508160011b916000199060031b1c19161760018401555b60408201518051906001600160401b0382116106af57819061048d60028701546115ed565b601f811161073d575b50602090601f83116001146106ce5789926106c3575b50508160011b916000199060031b1c19161760028401555b60608201518051906001600160401b0382116106af576104e760038601546115ed565b601f811161066b575b5060209088601f84116001146105cd576105b5969484600895610100957fe62bb34062a9befc796027402e7239db2a0291eb10ffa8a3edab98e554d8af009b999561059695926105c2575b50508160011b916000199060031b1c19161760038701555b6004860160ff60808501511660ff1982541617905560a0830151600587015560c083015160068701558201511515600786019060ff801983541691151516179055565b01519101556003549360ff604051938493604085526040850190611770565b911660208301520390a280f35b01519050388061053b565b50906003860189526020892091895b601f198516811061065357506105b59694600185610100957fe62bb34062a9befc796027402e7239db2a0291eb10ffa8a3edab98e554d8af009b999561059695600899601f1981161061063a575b505050811b016003870155610553565b015160001960f88460031b161c1916905538808061062a565b919260206001819286850151815501940192016105dc565b60038601895260208920601f840160051c8101602085106106a8575b601f830160051c8201811061069d5750506104f0565b8a8155600101610687565b5080610687565b634e487b7160e01b88526041600452602488fd5b0151905038806104ac565b9250600286018952602089209089935b601f1984168510610722576001945083601f19811610610709575b505050811b0160028401556104c4565b015160001960f88460031b161c191690553880806106f9565b818101518355602094850194600190930192909101906106de565b90915060028601895260208920601f840160051c810160208510610786575b90849392915b601f830160051c82018110610778575050610496565b8b8155859450600101610762565b508061075c565b015190503880610450565b9250600186018952602089209089935b601f19841685106107ec576001945083601f198116106107d3575b505050811b016001840155610468565b015160001960f88460031b161c191690553880806107c3565b818101518355602094850194600190930192909101906107a8565b90915060018601895260208920601f840160051c810160208510610850575b90849392915b601f830160051c8201811061084257505061043a565b8b815585945060010161082c565b5080610826565b8580fd5b8480fd5b8380fd5b8280fd5b5080fd5b823461015f578060031936011261015f576040517f00000000000000000000000000000000000000000000000000000000000000006001600160a01b03168152602090f35b823461015f578060031936011261015f576020600354604051908152f35b823461015f57602080600319360112610867576108e9611795565b6003906003546108f8816119d3565b9285926001600160a01b031660015b838111156109b5575050505061091c816119d3565b91845b828110610985575050506040519180830190808452825180925280604085019301945b82811061094f5784840385f35b85518051855280830151858401526040808201519086015260609081015115159085015294810194608090930192600101610942565b80610995600192849896986119a9565b516109a082896119a9565b526109ab81886119a9565b500194929461091f565b8188969852600580885260408720828852885260408720546109e4575b506109dc906118dd565b969496610907565b6109dc9195610a4b9184895289526040882087895289526040882060ff8660405192610a0f84611627565b8054845260018101548d8501526002810154604085015201541615156060820152610a3a828c6119a9565b52610a45818b6119a9565b506118dd565b94906109d2565b823461015f578060031936011261015f57546040516001600160a01b039091168152602090f35b823461015f576020908160031936011261015f576004356001600160401b03811161086757610aac9036906004016117b0565b9060039160035492610abd84611919565b938392604051610ae9888281610adc818301968781519384920161174d565b8101038084520182611687565b5190209160015b82811115610c105750505050610b0581611919565b92825b828110610be65750505060405192808401908085528351809252604085018160408460051b880101950193965b838810610b425786860387f35b90919293948380600192603f198a8203018652885190610b9f610b8c610b7a6101208551855286860151908088870152850190611770565b60408501518482036040860152611770565b6060808501519084830390850152611770565b91608060ff81830151169083015260a0808201519083015260c080820151908301528681015115158783015261010080910151910152970193019701969093929193610b35565b80610bf3600192846119a9565b51610bfe82886119a9565b52610c0981876119a9565b5001610b08565b80865260048852838260408820016040518a8101918b8a91805484610c34826115ed565b9360018316928315610d5b57505050600114610d22575b505081610c609103601f198101835282611687565b51902014610c77575b610c72906118dd565b610af0565b93610d1a610c729186885260048a5260408820600860405191610c998361166b565b80548352610ca9600182016116a8565b8d840152610cb9600282016116a8565b6040840152610cc98782016116a8565b60608401528d60ff806004840154166080860152600583015460a0860152600683015460c08601526007830154161515908401520154610100820152610d0f828b6119a9565b52610a45818a6119a9565b949050610c69565b8d92508b52818b208b905b828210610d4257505082010181610c60610c4b565b80548583018501528a96508e9390910190600101610d2d565b919492509250610c60945060ff191686528015150282010191610c4b565b823461015f578060031936011261015f576002546040516001600160a01b039091168152602090f35b823461015f578060031936011261015f57610dbb611a41565b600080546001600160a01b0319811682556001600160a01b03167f8be0079c531659141344cd1fd0a4f28419497f9722a3daafe3b4186f6b6457e08280a380f35b823461015f57602036600319011261015f57610e16611795565b610e1e611a41565b6001600160a01b0316808252600760205260408220805460ff191690557f66d5f06f711af3c9feba3203fdb00b51345d514c68585d9d319c5ff5e6f775928280a280f35b823461015f57608036600319011261015f57610e7c611795565b906024356044359060018060a01b038084541633148015610fd7575b610ea190611806565b81845260209460048652610ebe60ff600760408820015416611852565b169182845260058552604084208285528552610ee460ff6003604087200154161561189e565b60648111610f995760649082847fe18b6174bfabbe0a9ab2c4710c46709aa42737153df0b05008c252db8861b8b987988289526005815260408920848a52815284600260408b200155604051858152a314610f3d575050f35b303b15610f9557604051916333f3c1c560e01b8352600483015260248201526064356044820152818160648183305af18015610f8a57610f7a5750f35b610f8390611658565b61015f5780f35b6040513d84823e3d90fd5b5050fd5b60405162461bcd60e51b8152600481018690526016602482015275496e76616c69642070726f67726573732076616c756560501b6044820152606490fd5b503384526007602052604084205460ff16610e98565b823461015f57602036600319011261015f57611007611795565b61100f611a41565b6001600160a01b0316808252600760205260408220805460ff191660011790557f10ac961f00d5e732ba4dcc2c6fb09bebea0eb9edd2a75c8109775ef288382e678280a280f35b823461015f578060031936011261015f576040517f00000000000000000000000000000000000000000000000000000000000000006001600160a01b03168152602090f35b823461015f57606036600319011261015f576110b5611795565b81546001600160a01b03916024359160443590841633148015611464575b6110dc90611806565b60019360028554146114525760028555838652602091600483528682604082209561110d60ff600789015416611852565b16948582526005855260408220878352855261113360ff6003604085200154161561189e565b61119660405161114281611627565b8881526003878201428152604083016064815260608401918d83528b885260058b52604088208d89528b526040882094518555518d85015551600284015551151591019060ff801983541691151516179055565b85825260068552604082206111ab81546118dd565b9055600881016111bb81546118dd565b90556005810192835480151580611449575b6113c2575b50506006810193845480611340575b506002541680611227575b505050907f9ef2c321fe1121c03b13e9b563bb741f632cde9b9869ef45858c4aa5cec4401192604092549154908351928352820152a3805580f35b600482015460ff16918901813b1561085f576040519263c87aa52960e01b84528860048501528960248501526080604485015284918b815491611269836115ed565b92836084890152888860a4948316928360001461131a575050506001146112cc575b5050509183858180948296606483015203925af18015610f8a576112b0575b806111ec565b6112bc90939293611658565b6112c8579086886112aa565b8680fd5b90929350865288862091898d88945b8486106112f7575050505090840160a40191905083858161128b565b809192939496979899505484868b0101520192019190898d8f98979695936112db565b60ff191660a48083019190915295151560051b81019095019650925083915061128b9050565b817f00000000000000000000000000000000000000000000000000000000000000001690813b1561085b57849060448a8360405195869485936340c10f1960e01b8552600485015260248401525af19081156113b75784916113a3575b506111e1565b6113ac90611658565b61086357828b61139d565b6040513d86823e3d90fd5b85939192937f000000000000000000000000000000000000000000000000000000000000000016803b156108635761ffff9383604492604051968795869463d866c1eb60e01b865260048601521660248401525af1801561143e5761142b575b908189926111d2565b61143790989198611658565b9688611422565b6040513d8b823e3d90fd5b508115156111cd565b604051633ee5aeb560e01b8152600490fd5b503385526007602052604085205460ff166110d3565b823461015f57602036600319011261015f5760409060043581526004602052208054906114a9600182016116a8565b926114b6600283016116a8565b906114c3600384016116a8565b9260ff600482015416936005820154611526600684015492611518600860ff6007880154169601549761150a6040519c8d809d6020610120928392815201528d0190611770565b908b820360408d0152611770565b9089820360608b0152611770565b95608088015260a087015260c08601521515908401526101008301520390f35b823461015f57604036600319011261015f5760043560243580151581036108635761156f611a41565b600354821115806115e4575b156115a6576115a39183526004602052600760408420019060ff801983541691151516179055565b80f35b60405162461bcd60e51b8152602060048201526016602482015275125b9d985b1a59081858da1a595d995b595b9d08125160521b6044820152606490fd5b5081151561157b565b90600182811c9216801561161d575b602083101461160757565b634e487b7160e01b600052602260045260246000fd5b91607f16916115fc565b608081019081106001600160401b0382111761164257604052565b634e487b7160e01b600052604160045260246000fd5b6001600160401b03811161164257604052565b61012081019081106001600160401b0382111761164257604052565b90601f801991011681019081106001600160401b0382111761164257604052565b906040519182600082546116bb816115ed565b9081845260209460019160018116908160001461172b57506001146116ec575b5050506116ea92500383611687565b565b600090815285812095935091905b8183106117135750506116ea93508201013880806116db565b855488840185015294850194879450918301916116fa565b925050506116ea94925060ff191682840152151560051b8201013880806116db565b60005b8381106117605750506000910152565b8181015183820152602001611750565b906020916117898151809281855285808601910161174d565b601f01601f1916010190565b600435906001600160a01b03821682036117ab57565b600080fd5b81601f820112156117ab578035906001600160401b03821161164257604051926117e4601f8401601f191660200185611687565b828452602083830101116117ab57816000926020809301838601378301015290565b1561180d57565b60405162461bcd60e51b815260206004820152601860248201527f43616c6c6572206973206e6f7420617574686f72697a656400000000000000006044820152606490fd5b1561185957565b60405162461bcd60e51b815260206004820152601960248201527f416368696576656d656e74206973206e6f7420616374697665000000000000006044820152606490fd5b156118a557565b60405162461bcd60e51b815260206004820152601060248201526f105b1c9958591e481d5b9b1bd8dad95960821b6044820152606490fd5b60001981146118ec5760010190565b634e487b7160e01b600052601160045260246000fd5b6001600160401b0381116116425760051b60200190565b9061192382611902565b6040906119336040519182611687565b8381528093611944601f1991611902565b019160005b8381106119565750505050565b60209082516119648161166b565b6000815260608390808284015280868401528083015260006080830152600060a0830152600060c0830152600060e08301526000610100830152828601015201611949565b80518210156119bd5760209160051b010190565b634e487b7160e01b600052603260045260246000fd5b906119dd82611902565b6040906119ed6040519182611687565b83815280936119fe601f1991611902565b019160005b838110611a105750505050565b6020908251611a1e81611627565b600081528260008183015260008583015260006060830152828601015201611a03565b6000546001600160a01b03163303611a5557565b60405163118cdaa760e01b8152336004820152602490fdfea2646970667358221220a250b98f5bd2b6aa84bc451f82541e1ffa9ca92678708bb7318585ac91b390b564736f6c63430008180033",
  "linkReferences": {},
  "deployedLinkReferences": {}
}