{
  "_format": "hh-sol-artifact-1",
  "contractName": "CharacterBreeding",
  "sourceName": "contracts/CharacterBreeding.sol",
  "abi": [
    {
      "inputs": [
        {
          "internalType": "address",
          "name": "vrfCoordinator",
          "type": "address"
        },
        {
          "internalType": "address",
          "name": "_gameCharacter",
          "type": "address"
        },
        {
          "internalType": "address",
          "name": "_gameToken",
          "type": "address"
        },
        {
          "internalType": "uint64",
          "name": "_subscriptionId",
          "type": "uint64"
        },
        {
          "internalType": "bytes32",
          "name": "_keyHash",
          "type": "bytes32"
        }
      ],
      "stateMutability": "nonpayable",
      "type": "constructor"
    },
    {
      "inputs": [
        {
          "internalType": "address",
          "name": "have",
          "type": "address"
        },
        {
          "internalType": "address",
          "name": "want",
          "type": "address"
        }
      ],
      "name": "OnlyCoordinatorCanFulfill",
      "type": "error"
    },
    {
      "inputs": [
        {
          "internalType": "address",
          "name": "owner",
          "type": "address"
        }
      ],
      "name": "OwnableInvalidOwner",
      "type": "error"
    },
    {
      "inputs": [
        {
          "internalType": "address",
          "name": "account",
          "type": "address"
        }
      ],
      "name": "OwnableUnauthorizedAccount",
      "type": "error"
    },
    {
      "inputs": [],
      "name": "ReentrancyGuardReentrantCall",
      "type": "error"
    },
    {
      "anonymous": false,
      "inputs": [
        {
          "indexed": true,
          "internalType": "uint256",
          "name": "requestId",
          "type": "uint256"
        },
        {
          "indexed": true,
          "internalType": "address",
          "name": "breeder",
          "type": "address"
        },
        {
          "indexed": false,
          "internalType": "uint256",
          "name": "parent1",
          "type": "uint256"
        },
        {
          "indexed": false,
          "internalType": "uint256",
          "name": "parent2",
          "type": "uint256"
        }
      ],
      "name": "BreedingRequested",
      "type": "event"
    },
    {
      "anonymous": false,
      "inputs": [
        {
          "indexed": true,
          "internalType": "uint256",
          "name": "parent1",
          "type": "uint256"
        },
        {
          "indexed": true,
          "internalType": "uint256",
          "name": "parent2",
          "type": "uint256"
        },
        {
          "indexed": false,
          "internalType": "uint256",
          "name": "offspring",
          "type": "uint256"
        },
        {
          "indexed": false,
          "internalType": "uint256",
          "name": "generation",
          "type": "uint256"
        }
      ],
      "name": "CharacterBred",
      "type": "event"
    },
    {
      "anonymous": false,
      "inputs": [
        {
          "indexed": true,
          "internalType": "uint256",
          "name": "token1",
          "type": "uint256"
        },
        {
          "indexed": true,
          "internalType": "uint256",
          "name": "token2",
          "type": "uint256"
        },
        {
          "indexed": false,
          "internalType": "uint256",
          "name": "fusedToken",
          "type": "uint256"
        },
        {
          "indexed": false,
          "internalType": "uint256",
          "name": "totalStats",
          "type": "uint256"
        }
      ],
      "name": "CharactersFused",
      "type": "event"
    },
    {
      "anonymous": false,
      "inputs": [
        {
          "indexed": true,
          "internalType": "address",
          "name": "previousOwner",
          "type": "address"
        },
        {
          "indexed": true,
          "internalType": "address",
          "name": "newOwner",
          "type": "address"
        }
      ],
      "name": "OwnershipTransferred",
      "type": "event"
    },
    {
      "inputs": [],
      "name": "COORDINATOR",
      "outputs": [
        {
          "internalType": "contract VRFCoordinatorV2Interface",
          "name": "",
          "type": "address"
        }
      ],
      "stateMutability": "view",
      "type": "function"
    },
    {
      "inputs": [],
      "name": "achievementTrigger",
      "outputs": [
        {
          "internalType": "contract IAchievementTrigger",
          "name": "",
          "type": "address"
        }
      ],
      "stateMutability": "view",
      "type": "function"
    },
    {
      "inputs": [],
      "name": "baseCooldown",
      "outputs": [
        {
          "internalType": "uint256",
          "name": "",
          "type": "uint256"
        }
      ],
      "stateMutability": "view",
      "type": "function"
    },
    {
      "inputs": [
        {
          "internalType": "uint256",
          "name": "parent1Id",
          "type": "uint256"
        },
        {
          "internalType": "uint256",
          "name": "parent2Id",
          "type": "uint256"
        }
      ],
      "name": "breed",
      "outputs": [
        {
          "internalType": "uint256",
          "name": "",
          "type": "uint256"
        }
      ],
      "stateMutability": "nonpayable",
      "type": "function"
    },
    {
      "inputs": [],
      "name": "breedingCost",
      "outputs": [
        {
          "internalType": "uint256",
          "name": "",
          "type": "uint256"
        }
      ],
      "stateMutability": "view",
      "type": "function"
    },
    {
      "inputs": [
        {
          "internalType": "uint256",
          "name": "",
          "type": "uint256"
        },
        {
          "internalType": "uint256",
          "name": "",
          "type": "uint256"
        }
      ],
      "name": "breedingHistory",
      "outputs": [
        {
          "internalType": "uint256",
          "name": "parent1",
          "type": "uint256"
        },
        {
          "internalType": "uint256",
          "name": "parent2",
          "type": "uint256"
        },
        {
          "internalType": "uint256",
          "name": "offspring",
          "type": "uint256"
        },
        {
          "internalType": "uint256",
          "name": "timestamp",
          "type": "uint256"
        }
      ],
      "stateMutability": "view",
      "type": "function"
    },
    {
      "inputs": [],
      "name": "callbackGasLimit",
      "outputs": [
        {
          "internalType": "uint32",
          "name": "",
          "type": "uint32"
        }
      ],
      "stateMutability": "view",
      "type": "function"
    },
    {
      "inputs": [
        {
          "internalType": "uint256",
          "name": "tokenId",
          "type": "uint256"
        }
      ],
      "name": "canBreed",
      "outputs": [
        {
          "internalType": "bool",
          "name": "",
          "type": "bool"
        }
      ],
      "stateMutability": "view",
      "type": "function"
    },
    {
      "inputs": [
        {
          "internalType": "uint256",
          "name": "token1",
          "type": "uint256"
        },
        {
          "internalType": "uint256",
          "name": "token2",
          "type": "uint256"
        }
      ],
      "name": "canFuse",
      "outputs": [
        {
          "internalType": "bool",
          "name": "",
          "type": "bool"
        },
        {
          "internalType": "string",
          "name": "",
          "type": "string"
        }
      ],
      "stateMutability": "view",
      "type": "function"
    },
    {
      "inputs": [
        {
          "internalType": "uint256",
          "name": "token1",
          "type": "uint256"
        },
        {
          "internalType": "uint256",
          "name": "token2",
          "type": "uint256"
        }
      ],
      "name": "fuse",
      "outputs": [
        {
          "internalType": "uint256",
          "name": "",
          "type": "uint256"
        }
      ],
      "stateMutability": "nonpayable",
      "type": "function"
    },
    {
      "inputs": [],
      "name": "fusionCost",
      "outputs": [
        {
          "internalType": "uint256",
          "name": "",
          "type": "uint256"
        }
      ],
      "stateMutability": "view",
      "type": "function"
    },
    {
      "inputs": [],
      "name": "gameCharacter",
      "outputs": [
        {
          "internalType": "contract IGameCharacter",
          "name": "",
          "type": "address"
        }
      ],
      "stateMutability": "view",
      "type": "function"
    },
    {
      "inputs": [],
      "name": "gameToken",
      "outputs": [
        {
          "internalType": "contract IERC20",
          "name": "",
          "type": "address"
        }
      ],
      "stateMutability": "view",
      "type": "function"
    },
    {
      "inputs": [
        {
          "internalType": "uint256",
          "name": "tokenId",
          "type": "uint256"
        }
      ],
      "name": "getBreedingHistory",
      "outputs": [
        {
          "components": [
            {
              "internalType": "uint256",
              "name": "parent1",
              "type": "uint256"
            },
            {
              "internalType": "uint256",
              "name": "parent2",
              "type": "uint256"
            },
            {
              "internalType": "uint256",
              "name": "offspring",
              "type": "uint256"
            },
            {
              "internalType": "uint256",
              "name": "timestamp",
              "type": "uint256"
            }
          ],
          "internalType": "struct CharacterBreeding.BreedingPair[]",
          "name": "",
          "type": "tuple[]"
        }
      ],
      "stateMutability": "view",
      "type": "function"
    },
    {
      "inputs": [],
      "name": "keyHash",
      "outputs": [
        {
          "internalType": "bytes32",
          "name": "",
          "type": "bytes32"
        }
      ],
      "stateMutability": "view",
      "type": "function"
    },
    {
      "inputs": [
        {
          "internalType": "uint256",
          "name": "",
          "type": "uint256"
        }
      ],
      "name": "lastBredAt",
      "outputs": [
        {
          "internalType": "uint256",
          "name": "",
          "type": "uint256"
        }
      ],
      "stateMutability": "view",
      "type": "function"
    },
    {
      "inputs": [],
      "name": "maxBreedCount",
      "outputs": [
        {
          "internalType": "uint8",
          "name": "",
          "type": "uint8"
        }
      ],
      "stateMutability": "view",
      "type": "function"
    },
    {
      "inputs": [],
      "name": "maxGeneration",
      "outputs": [
        {
          "internalType": "uint8",
          "name": "",
          "type": "uint8"
        }
      ],
      "stateMutability": "view",
      "type": "function"
    },
    {
      "inputs": [],
      "name": "numWords",
      "outputs": [
        {
          "internalType": "uint32",
          "name": "",
          "type": "uint32"
        }
      ],
      "stateMutability": "view",
      "type": "function"
    },
    {
      "inputs": [],
      "name": "owner",
      "outputs": [
        {
          "internalType": "address",
          "name": "",
          "type": "address"
        }
      ],
      "stateMutability": "view",
      "type": "function"
    },
    {
      "inputs": [
        {
          "internalType": "uint256",
          "name": "requestId",
          "type": "uint256"
        },
        {
          "internalType": "uint256[]",
          "name": "randomWords",
          "type": "uint256[]"
        }
      ],
      "name": "rawFulfillRandomWords",
      "outputs": [],
      "stateMutability": "nonpayable",
      "type": "function"
    },
    {
      "inputs": [],
      "name": "renounceOwnership",
      "outputs": [],
      "stateMutability": "nonpayable",
      "type": "function"
    },
    {
      "inputs": [],
      "name": "requestConfirmations",
      "outputs": [
        {
          "internalType": "uint16",
          "name": "",
          "type": "uint16"
        }
      ],
      "stateMutability": "view",
      "type": "function"
    },
    {
      "inputs": [
        {
          "internalType": "uint256",
          "name": "",
          "type": "uint256"
        }
      ],
      "name": "requestToBreeder",
      "outputs": [
        {
          "internalType": "address",
          "name": "",
          "type": "address"
        }
      ],
      "stateMutability": "view",
      "type": "function"
    },
    {
      "inputs": [
        {
          "internalType": "uint256",
          "name": "",
          "type": "uint256"
        }
      ],
      "name": "requestToParent1",
      "outputs": [
        {
          "internalType": "uint256",
          "name": "",
          "type": "uint256"
        }
      ],
      "stateMutability": "view",
      "type": "function"
    },
    {
      "inputs": [
        {
          "internalType": "uint256",
          "name": "",
          "type": "uint256"
        }
      ],
      "name": "requestToParent2",
      "outputs": [
        {
          "internalType": "uint256",
          "name": "",
          "type": "uint256"
        }
      ],
      "stateMutability": "view",
      "type": "function"
    },
    {
      "inputs": [],
      "name": "s_subscriptionId",
      "outputs": [
        {
          "internalType": "uint64",
          "name": "",
          "type": "uint64"
        }
      ],
      "stateMutability": "view",
      "type": "function"
    },
    {
      "inputs": [
        {
          "internalType": "address",
          "name": "_trigger",
          "type": "address"
        }
      ],
      "name": "setAchievementTrigger",
      "outputs": [],
      "stateMutability": "nonpayable",
      "type": "function"
    },
    {
      "inputs": [
        {
          "internalType": "uint256",
          "name": "newCooldown",
          "type": "uint256"
        }
      ],
      "name": "setBaseCooldown",
      "outputs": [],
      "stateMutability": "nonpayable",
      "type": "function"
    },
    {
      "inputs": [
        {
          "internalType": "uint256",
          "name": "newCost",
          "type": "uint256"
        }
      ],
      "name": "setBreedingCost",
      "outputs": [],
      "stateMutability": "nonpayable",
      "type": "function"
    },
    {
      "inputs": [
        {
          "internalType": "uint8",
          "name": "newMax",
          "type": "uint8"
        }
      ],
      "name": "setMaxGeneration",
      "outputs": [],
      "stateMutability": "nonpayable",
      "type": "function"
    },
    {
      "inputs": [
        {
          "internalType": "uint64",
          "name": "_subId",
          "type": "uint64"
        },
        {
          "internalType": "bytes32",
          "name": "_keyHash",
          "type": "bytes32"
        },
        {
          "internalType": "uint32",
          "name": "_gasLimit",
          "type": "uint32"
        }
      ],
      "name": "setVRFConfig",
      "outputs": [],
      "stateMutability": "nonpayable",
      "type": "function"
    },
    {
      "inputs": [
        {
          "internalType": "address",
          "name": "newOwner",
          "type": "address"
        }
      ],
      "name": "transferOwnership",
      "outputs": [],
      "stateMutability": "nonpayable",
      "type": "function"
    }
  ],
  "bytecode": "0x60a034620001a2576001600160401b03601f6200277a38819003918201601f191684019183831185841017620001a75780859260a094604052833981010312620001a2576200004e82620001bd565b906200005d60208401620001bd565b916200006c60408501620001bd565b9360608101519283168303620001a25760800151928160805233156200018957600080546001600160a01b03198082163390811784556040519891956001600160a01b039592948694859391908416907f8be0079c531659141344cd1fd0a4f28419497f9722a3daafe3b4186f6b6457e09080a360018055660a0003001e848060018060501b0319600754161760075568056bc75e2d63100000600855681b1ae4d6e2ef50000060095562093a80600a5561050a61ffff19600b541617600b5516856002541617600255168360035416176003551690600454161760045560055490600160a01b600160e01b039060a01b1690600160a01b600160e01b031916176005556006556125a79081620001d382396080518161121e0152f35b604051631e4fbdf760e01b815260006004820152602490fd5b600080fd5b634e487b7160e01b600052604160045260246000fd5b51906001600160a01b0382168203620001a25756fe60e080604052600436101561001357600080fd5b600060c05260c0513560e01c90816314be1de214611a18575080631fe543e3146111ab57806320b29a071461117d57806324f74697146111585780632730c6e71461111e578063300f6f60146110f45780633b2bcbf1146110ca578063564605511461106b57806361728f391461104c578063715018a614610fee5780637ccfd7fc14610fc65780637d7c4cfb14610fa1578063809e183814610f825780638626a8ac14610f5a5780638ac0002114610f2f5780638da5cb5b14610f0457806393deec2714610ee5578063a664e87614610eb7578063abb11bb014610dc0578063b0fb162f14610d9b578063b92d66be14610d65578063be34ab4514610d1c578063c3dfdae614610cf2578063cfea776e14610ccd578063d5616ff314610cae578063d9ecad7b14610871578063e532e67a14610837578063f2fde38b146107a7578063f47a62781461077d578063f503970a1461075b578063f68858e41461023b578063fd3a0f34146101bb5763ff8b05741461019057600080fd5b346101b55760c0513660031901126101b557602060ff600b5460081c16604051908152f35b60c05180fd5b346101b55760603660031901126101b5576004356001600160401b03811681036101b5576044359063ffffffff82168092036101b5576101f9612229565b600554906001600160401b0360a01b9060a01b16906001600160401b0360a01b19161760055560243560065563ffffffff19600754161760075560c05160c051f35b346101b55761024936611af4565b610251612255565b61025b8183611d63565b9015610733575060018060a01b03600354169060405192639b046ed360e01b9283855281600486015260c05185602481845afa9485156105f45760c05195610715575b506040519384528260048501528360248160c051935afa9283156105f45760c051936106ef575b506103116103066102fb6102f06102e5602089015160408a015190611ffa565b606089015190611ffa565b602087015190611ffa565b604086015190611ffa565b606085015190611ffa565b9360095461025886116000146106c15780600381020460031481151715610666576020600361037b92025b600480546040516323b872dd60e01b8152339281019290925230602483015260448201929092529283916001600160a01b031690829081906064820190565b039160c051905af180156105f45760c05190610686575b61039c915061213e565b6103af6020820151602086015190612409565b6103c26040830151604087015190612409565b9460c0806103d96060860151606085015190612409565b9401519101518082111561067e5750915b60018301809311610666576003546001600160a01b0316803b156101b557604051630852cd8d60e31b918282528660048301528160248160c0519360c051905af180156105f457610650575b506003546001600160a01b0316803b156101b5576040519182528660048301528160248160c0519360c051905af180156105f45761063a575b506003546040516020946102649390926001600160a01b0316916105249161049682611a42565b60c051825260c0518883015260c051604083015260c051606083015260c051608083015260c05160a08301526040519a8b97889663b0bebe8d60e01b88523360048901526102206024890152600561022489015264119d5cd95960da1b61024489015260448801526064870152608486015260a48501528760c48501528860e4850152610104840190612182565b60c0516101c483015260016101e4830152600161020483015260c051905af19283156105f45760c05193610601575b506005546001600160a01b0316806105a4575b507f4f8cdf47ae356ed3c6fba41053572ebc99a097bb51b6759c3901ec56bc565eb4604060209581519086825287820152a360018055604051908152f35b803b156101b557604051906358e94dc760e11b82523360048301528460248301528160448160c0519360c051905af180156105f45715610566576105e790611a8e565b60c0516101b55784610566565b6040513d60c051823e3d90fd5b9092506020813d602011610632575b8161061d60209383611abc565b8101031261062d57519184610553565b600080fd5b3d9150610610565b61064390611a8e565b60c0516101b5578761046f565b61065990611a8e565b60c0516101b55788610436565b634e487b7160e01b60c051526011600452602460c051fd5b9050916103ea565b506020813d6020116106b9575b816106a060209383611abc565b810103126101b5576106b461039c91611ba3565b610392565b3d9150610693565b6101f486116106d6575b602061037b9161033c565b808060011b04600214811517156106665760011b6106cb565b61070e9193503d8060c051833e6107068183611abc565b810190611bbe565b91846102c5565b61072c9195503d8060c051833e6107068183611abc565b938561029e565b60405162461bcd60e51b815260206004820152908190610757906024830190611b2d565b0390fd5b346101b55760c0513660031901126101b557602060ff600b5416604051908152f35b346101b55760c0513660031901126101b5576003546040516001600160a01b039091168152602090f35b346101b55760203660031901126101b5576004356001600160a01b03818116918290036101b5576107d6612229565b811561081d57600054826001600160601b0360a01b821617600055167f8be0079c531659141344cd1fd0a4f28419497f9722a3daafe3b4186f6b6457e0600080a360c05180f35b604051631e4fbdf760e01b815260c0516004820152602490fd5b346101b55760203660031901126101b55760043560ff81168091036101b55761085e612229565b60ff19600b541617600b5560c05160c051f35b346101b55761087f36611af4565b90610888612255565b818114610c70576003546040516331a9108f60e11b808252600482018490526020946024949390926001600160a01b0392918316919087818881865afa9081156105f45760c05191610c53575b508333911603610c17578690866040518094819382528760048301525afa9081156105f45760c05191610bea575b508133911603610bae576109168361201d565b15610b72576109248261201d565b15610b365761093382846122d7565b610afa57600480546008546040516323b872dd60e01b81523393810193909352306024840152604483015260c0519192918791849160649183919086165af180156105f457869260c05191610ac1575b5061098d9061213e565b600254169360a46006546001600160401b0360055460a01c169660075463ffffffff90604051998a9687956305d3b1d360e41b8752600487015285015261ffff81881c166044850152818116606485015260301c16608483015260c051905af19283156105f45760c05193610a92575b508260c05152600e8452604060c05120336001600160601b0360a01b825416179055600f845281604060c05120556010845280604060c05120558160c05152600c845242604060c05120558060c0515242604060c051205560405191825283820152817fd45433909753dcba852fa71268eb191d11e438985af589af5fa577e51fe839d360403393a360018055604051908152f35b9092508381813d8311610aba575b610aaa8183611abc565b8101031261062d575191846109fd565b503d610aa0565b83819492503d8311610af3575b610ad88183611abc565b810103126101b55761098d610aed8793611ba3565b90610983565b503d610ace565b60405162461bcd60e51b8152600481018690526015818601527443616e6e6f74206272656564207369626c696e677360581b6044820152606490fd5b60405162461bcd60e51b8152600481018690526015818601527414185c995b9d080c8818d85b9b9bdd08189c995959605a1b6044820152606490fd5b60405162461bcd60e51b8152600481018690526015818601527414185c995b9d080c4818d85b9b9bdd08189c995959605a1b6044820152606490fd5b60405162461bcd60e51b815260048101869052601581860152742737ba1037bbb732b91037b3103830b932b73a101960591b6044820152606490fd5b610c0a9150863d8811610c10575b610c028183611abc565b810190611b84565b86610903565b503d610bf8565b60405162461bcd60e51b815260048101889052601581880152744e6f74206f776e6572206f6620706172656e74203160581b6044820152606490fd5b610c6a9150883d8a11610c1057610c028183611abc565b886108d5565b60405162461bcd60e51b815260206004820152601660248201527521b0b73737ba10313932b2b2103bb4ba341039b2b63360511b6044820152606490fd5b346101b55760c0513660031901126101b5576020600954604051908152f35b346101b55760203660031901126101b557610ce6612229565b600435600a5560c05180f35b346101b55760c0513660031901126101b5576004546040516001600160a01b039091168152602090f35b346101b55760203660031901126101b5576004356001600160a01b038116908190036101b557610d4a612229565b6001600160601b0360a01b600554161760055560c05160c051f35b346101b55760203660031901126101b55760043560c05152600e602052602060018060a01b03604060c051205416604051908152f35b346101b55760c0513660031901126101b557602060075461ffff60405191831c168152f35b346101b5576020806003193601126101b55760043560c05152600d8152604060c05120908154610def81611add565b90610dfd6040519283611abc565b808252828201809460c051528360c0512060c051915b838310610e775785858860405191838301908484525180915260408301919360c0515b828110610e435784840385f35b8551805185528083015185840152604080820151908601526060908101519085015294810194608090930192600101610e36565b600486600192604051610e8981611a73565b8554815284860154838201526002860154604082015260038601546060820152815201920192019190610e13565b346101b55760203660031901126101b55760043560c05152600c6020526020604060c0512054604051908152f35b346101b55760c0513660031901126101b5576020600a54604051908152f35b346101b55760c0513660031901126101b55760c051546040516001600160a01b039091168152602090f35b346101b55760c0513660031901126101b55760206001600160401b0360055460a01c16604051908152f35b346101b55760203660031901126101b5576020610f7860043561201d565b6040519015158152f35b346101b55760c0513660031901126101b5576020600854604051908152f35b346101b55760203660031901126101b557610fba612229565b60043560085560c05180f35b346101b55760c0513660031901126101b557602063ffffffff60075460301c16604051908152f35b346101b55760c0513660031901126101b557611008612229565b600080546001600160a01b0319811682556001600160a01b03167f8be0079c531659141344cd1fd0a4f28419497f9722a3daafe3b4186f6b6457e08280a360c05180f35b346101b55760c0513660031901126101b5576020600654604051908152f35b346101b55761107936611af4565b9060c05152600d602052604060c0512080548210156101b55760809161109e91611b52565b508054906001810154906003600282015491015491604051938452602084015260408301526060820152f35b346101b55760c0513660031901126101b5576002546040516001600160a01b039091168152602090f35b346101b55760c0513660031901126101b5576005546040516001600160a01b039091168152602090f35b346101b55761113561112f36611af4565b90611d63565b9061115460405192839215158352604060208401526040830190611b2d565b0390f35b346101b55760c0513660031901126101b557602063ffffffff60075416604051908152f35b346101b55760203660031901126101b55760043560c0515260106020526020604060c0512054604051908152f35b346101b55760403660031901126101b5576024356001600160401b0381116101b557366023820112156101b5578060040135906111e782611add565b906111f56040519283611abc565b828252602082016024819460051b830101913683116101b557602401905b828210611a085750507f00000000000000000000000000000000000000000000000000000000000000006001600160a01b03169050338190036119ea575060c080516004359052600e6020525160409020546001600160a01b03169081156119b35760043560c05152600f602052604060c05120546080526010602052604060c051205460a05260018060a01b03600354169060405190639b046ed360e01b94858352608051600484015260c05183602481875afa9283156105f45760c05193611995575b5060405195865260a051600487015260c05186602481875afa9586156105f45760c05196611977575b5060c083810151908701518082111561196f5750935b60018501851161066657835196603288101580611963575b1561195b576005975b8151116119515760e08501515b6040519361135285611a42565b60c051855260c051602086015260c051604086015260c051606086015260c051608086015260c05160a08601528551156119095751604b60649091061015611943576101008601515115155b15158452845160011015611909576040850151604b60649091061015611932576020610100870151015115155b15156020850152845160021015611909576060850151604b60649091061015611921576040610100870151015115155b151560408501526020860151602083015190865160031015611909576114269160808801519161243c565b9360408701516040840151908751600410156119095761144b9160a08901519161243c565b926060880151606082015190885160051015611909576114709160c08a01519161243c565b958751600610156119095760e088015161148991612494565b9890948599895160071015611909576101008a01516114a792612500565b81999198825160081015611909576101206114c493015190612500565b9590988960e08401516040516114f7602082816114ea8183019687815193849201611b0a565b8101038084520182611abc565b51902060e086015160405161151c602082816114ea8183019687815193849201611b0a565b51902014611820575b50505060646020820151101580611811575b80611807575b6117fe575b606460408201511015806117ef575b806117e5575b6117dc575b60606064910151101590816117cc575b50806117c2575b6117b9575b60405163b0bebe8d60e01b8152600481018a90526102206024820152998a9384936115a890610224860190611b2d565b9260018b0160448601528960648601528760848601528860a486015260805160c486015260a05160e486015261010485016115e291612182565b60ff166101c484015260ff166101e483015260c051610204830152038160c0515a94602095f19586156105f45760c05196611785575b5061168c60405161162881611a73565b608051815260a051602082015287604082015242606082015260805160c05152600d60205261165c81604060c051206121c6565b60a05160c05152600d60205261167781604060c051206121c6565b8760c05152600d602052604060c051206121c6565b60c080516004359052600e60209081529051604080822080546001600160a01b0319169055600f83528082208290556010909252908120556005546001600160a01b03169283611719575b8660018660405192835201602082015260a051907f287e263b03e9266f54a6ef3dd07dfaff31362b8c678cca2752ced304db63aa81604060805192a360c05180f35b833b156101b55760405195630f8c289360e31b875260048701528660248701526001850160448701526064860152608485015260a48401528260c48160c0519360c051905af19182156105f457600192611776575b8080806116d7565b61177f90611a8e565b8361176e565b9095506020813d6020116117b1575b816117a160209383611abc565b810103126101b557519486611618565b3d9150611794565b605a9550611578565b50605a8610611573565b606491506060015110158b61156c565b605a965061155c565b50605a8710611557565b50606460408301511015611551565b605a9850611542565b50605a891061153d565b50606460208301511015611537565b60409b92939b516020810190611843602082816114ea8d87815193849201611b0a565b5190206040516020810190662bb0b93934b7b960c91b82526007815261186881611aa1565b5190200361188a5750505060058101811161066657600501975b8c8080611525565b90925060409a98919a5160208101906118b0602082816114ea8c87815193849201611b0a565b519020604051602081019064526f67756560d81b8252600581526118d381611aa1565b519020036118f05750506005810181116106665760050195611882565b6005919899508092500181116106665760050196611882565b634e487b7160e01b60c051526032600452602460c051fd5b6040610100830151015115156113fb565b6020610100830151015115156113cb565b61010082015151151561139e565b60e0810151611345565b600197611338565b5060328151101561132f565b905093611317565b61198e9196503d8060c051833e6107068183611abc565b9486611301565b6119ac9193503d8060c051833e6107068183611abc565b91866112d8565b60405162461bcd60e51b815260206004820152600f60248201526e109c995959081b9bdd08199bdd5b99608a1b6044820152606490fd5b6044906040519063073e64fd60e21b82523360048301526024820152fd5b8135815260209182019101611213565b346101b55760203660031901126101b55760209060043560c05152600f8252604060c05120548152f35b60c081019081106001600160401b03821117611a5d57604052565b634e487b7160e01b600052604160045260246000fd5b608081019081106001600160401b03821117611a5d57604052565b6001600160401b038111611a5d57604052565b604081019081106001600160401b03821117611a5d57604052565b90601f801991011681019081106001600160401b03821117611a5d57604052565b6001600160401b038111611a5d5760051b60200190565b604090600319011261062d576004359060243590565b60005b838110611b1d5750506000910152565b8181015183820152602001611b0d565b90602091611b4681518092818552858086019101611b0a565b601f01601f1916010190565b8054821015611b6e5760005260206000209060021b0190600090565b634e487b7160e01b600052603260045260246000fd5b9081602091031261062d57516001600160a01b038116810361062d5790565b5190811515820361062d57565b519060ff8216820361062d57565b6020808284031261062d5781516001600160401b039283821161062d570180840390610220821261062d5760408051956101809586880188811082821117611a5d5783528351885285840151868901528284015183890152606084015160608901526080840151608089015260a084015164ffffffffff8116810361062d5760a089015260c084015160c089015260e084015181811161062d5784019082601f8301121561062d578151908111611a5d57835192611c85601f8301601f1916890185611abc565b81845287828401011161062d57611ca191878085019101611b0a565b60e087015260c06101009360ff19011261062d57611d5c9361020093825190611cc982611a42565b611cd4818601611ba3565b825261012092611ce5848701611ba3565b9083015261014093611cf8858701611ba3565b90830152611d1a61016098611d0e8a8801611bb0565b60608501528601611bb0565b6080830152611d2c6101a08601611bb0565b60a0830152880152611d416101c08401611bb0565b90870152611d526101e08301611bb0565b9086015201611ba3565b9082015290565b919091828114611fcf5760018060a01b03908160035416906040948551936331a9108f60e11b8086528360048701526020958681602481895afa908115611fc457600091611fa7575b508216331480159290611f4c575b5050611f2457855190639b046ed360e01b928383526004830152600082602481875afa918215611f1957600092611ef9575b5060246000929388519586938492835260048301525afa918215611eee57600092611ed1575b50610160808201511590811591611ec4575b50611e95576032905110908115611e89575b50611e5e576001928051918201908282106001600160401b03831117611a5d57526000815290565b6e131d9b080d4c081c995c5d5a5c9959608a1b6000935191611e7f83611aa1565b600f835282015290565b60329150511038611e36565b50507010d85b9b9bdd08199d5cd948199d5cd959607a1b6000935191611eba83611aa1565b6011835282015290565b9050820151151538611e24565b611ee79192503d806000833e6107068183611abc565b9038611e12565b85513d6000823e3d90fd5b60009250611f126024913d8086833e6107068183611abc565b9250611dec565b87513d6000823e3d90fd5b505050682737ba1037bbb732b960b91b6000935191611f4283611aa1565b6009835282015290565b90915087519182528260048301528582602481885afa918215611f9c57600092611f7d575b50163314153880611dba565b611f95919250863d8811610c1057610c028183611abc565b9038611f71565b88513d6000823e3d90fd5b611fbe9150873d8911610c1057610c028183611abc565b38611dac565b89513d6000823e3d90fd5b5060405160009250611fe081611aa1565b600a81526929b0b6b2903a37b5b2b760b11b602082015290565b9190820180921161200757565b634e487b7160e01b600052601160045260246000fd5b600354604051639b046ed360e01b815260048101839052916000918290849060249082906001600160a01b03165afa928315612133578293612117575b50600a5491600a830292808404600a14811517156121035761014085019360ff85511690600a828402029181830414901517156120ef57916120a660409260646120b596950490611ffa565b928152600c6020522054611ffa565b42101591826120dc575b50816120c9575090565b60ff9150511660ff600b5460081c161190565b60c00151600b5460ff16119150386120bf565b634e487b7160e01b83526011600452602483fd5b634e487b7160e01b82526011600452602482fd5b61212c9193503d8084833e6107068183611abc565b913861205a565b6040513d84823e3d90fd5b1561214557565b60405162461bcd60e51b8152602060048201526015602482015274151bdad95b881d1c985b9cd9995c8819985a5b1959605a1b6044820152606490fd5b60ff60a08092805115158552602081015115156020860152604081015115156040860152826060820151166060860152826080820151166080860152015116910152565b805468010000000000000000811015611a5d576121e891600182018155611b52565b9190916122135760608160039251845560208101516001850155604081015160028501550151910155565b634e487b7160e01b600052600060045260246000fd5b6000546001600160a01b0316330361223d57565b60405163118cdaa760e01b8152336004820152602490fd5b600260015414612266576002600155565b604051633ee5aeb560e01b8152600490fd5b9060408282031261062d5780601f8301121561062d5760405191604083018381106001600160401b03821117611a5d5760405282906040810192831161062d57905b8282106122c75750505090565b81518152602091820191016122ba565b60018060a01b036003541660409283519263242a008760e01b9081855260048501528484602481865afa938415611eee57908592916000956123e7575b5060249083519485938492835260048301525afa9283156123dd576000936123ae575b50508051801580156123a5575b61239d57825190818114938461238a575b8415612363575b5050505090565b60200151149250908261237c575b50503880808061235c565b602001511490503880612371565b9350602083015160208501511493612355565b505050600090565b50825115612344565b6123ce929350803d106123d6575b6123c68183611abc565b810190612278565b903880612337565b503d6123bc565b513d6000823e3d90fd5b602491955061240290843d86116123d6576123c68183611abc565b9490612314565b9061241391611ffa565b607881029080820460781490151715612007576064900460968111156124395750609690565b90565b919091602881029080820460281490151715612007576028830292808404602814901517156120075761247a60159160648061243996049104611ffa565b910690611ffa565b60ff60019116019060ff821161200757565b906103e89006603281106124ee57604681106124c9576103e7146124b85790600090565b601481018091116120075790600190565b5060058111156124e6576004198101908111612007575b90600090565b5060006124e0565b50600a81018091116120075790600190565b906103e890939293066032811061255b576046811061253a576103e714612525579190565b91601483018093116120075761243990612482565b506005811115612554576004198101908111612007579190565b5060009190565b5091600a8301809311612007576124399061248256fea2646970667358221220ffc680e306fbe4245cfd903dd5089324426249a2df8bdcecff4e28b713ad092164736f6c63430008180033",
  "linkReferences": {},
  "deployedLinkReferences": {}
}