{
  "_format": "hh-sol-artifact-1",
  "contractName": "CharacterStaking",
  "sourceName": "contracts/CharacterStaking.sol",
  "abi": [
    {
      "inputs": [
        {
          "internalType": "address",
          "name": "_characterNFT",
          "type": "address"
        },
        {
          "internalType": "address",
          "name": "_gameToken",
          "type": "address"
        }
      ],
      "stateMutability": "nonpayable",
      "type": "constructor"
    },
    {
      "inputs": [],
      "name": "EnforcedPause",
      "type": "error"
    },
    {
      "inputs": [],
      "name": "ExpectedPause",
      "type": "error"
    },
    {
      "inputs": [
        {
          "internalType": "address",
          "name": "owner",
          "type": "address"
        }
      ],
      "name": "OwnableInvalidOwner",
      "type": "error"
    },
    {
      "inputs": [
        {
          "internalType": "address",
          "name": "account",
          "type": "address"
        }
      ],
      "name": "OwnableUnauthorizedAccount",
      "type": "error"
    },
    {
      "inputs": [],
      "name": "ReentrancyGuardReentrantCall",
      "type": "error"
    },
    {
      "anonymous": false,
      "inputs": [
        {
          "indexed": false,
          "internalType": "uint8",
          "name": "level",
          "type": "uint8"
        },
        {
          "indexed": false,
          "internalType": "uint256",
          "name": "multiplier",
          "type": "uint256"
        }
      ],
      "name": "LevelMultiplierUpdated",
      "type": "event"
    },
    {
      "anonymous": false,
      "inputs": [
        {
          "indexed": true,
          "internalType": "address",
          "name": "previousOwner",
          "type": "address"
        },
        {
          "indexed": true,
          "internalType": "address",
          "name": "newOwner",
          "type": "address"
        }
      ],
      "name": "OwnershipTransferred",
      "type": "event"
    },
    {
      "anonymous": false,
      "inputs": [
        {
          "indexed": false,
          "internalType": "address",
          "name": "account",
          "type": "address"
        }
      ],
      "name": "Paused",
      "type": "event"
    },
    {
      "anonymous": false,
      "inputs": [
        {
          "indexed": false,
          "internalType": "uint256",
          "name": "newRate",
          "type": "uint256"
        }
      ],
      "name": "RewardRateUpdated",
      "type": "event"
    },
    {
      "anonymous": false,
      "inputs": [
        {
          "indexed": true,
          "internalType": "address",
          "name": "user",
          "type": "address"
        },
        {
          "indexed": false,
          "internalType": "uint256",
          "name": "amount",
          "type": "uint256"
        }
      ],
      "name": "RewardsClaimed",
      "type": "event"
    },
    {
      "anonymous": false,
      "inputs": [
        {
          "indexed": true,
          "internalType": "address",
          "name": "user",
          "type": "address"
        },
        {
          "indexed": true,
          "internalType": "uint256",
          "name": "tokenId",
          "type": "uint256"
        },
        {
          "indexed": false,
          "internalType": "uint256",
          "name": "timestamp",
          "type": "uint256"
        }
      ],
      "name": "Staked",
      "type": "event"
    },
    {
      "anonymous": false,
      "inputs": [
        {
          "indexed": false,
          "internalType": "address",
          "name": "account",
          "type": "address"
        }
      ],
      "name": "Unpaused",
      "type": "event"
    },
    {
      "anonymous": false,
      "inputs": [
        {
          "indexed": true,
          "internalType": "address",
          "name": "user",
          "type": "address"
        },
        {
          "indexed": true,
          "internalType": "uint256",
          "name": "tokenId",
          "type": "uint256"
        },
        {
          "indexed": false,
          "internalType": "uint256",
          "name": "timestamp",
          "type": "uint256"
        }
      ],
      "name": "Unstaked",
      "type": "event"
    },
    {
      "inputs": [],
      "name": "achievementTrigger",
      "outputs": [
        {
          "internalType": "contract IAchievementTrigger",
          "name": "",
          "type": "address"
        }
      ],
      "stateMutability": "view",
      "type": "function"
    },
    {
      "inputs": [],
      "name": "baseRewardRate",
      "outputs": [
        {
          "internalType": "uint256",
          "name": "",
          "type": "uint256"
        }
      ],
      "stateMutability": "view",
      "type": "function"
    },
    {
      "inputs": [
        {
          "internalType": "address",
          "name": "user",
          "type": "address"
        }
      ],
      "name": "calculateRewards",
      "outputs": [
        {
          "internalType": "uint256",
          "name": "",
          "type": "uint256"
        }
      ],
      "stateMutability": "view",
      "type": "function"
    },
    {
      "inputs": [],
      "name": "characterNFT",
      "outputs": [
        {
          "internalType": "contract IGameCharacter",
          "name": "",
          "type": "address"
        }
      ],
      "stateMutability": "view",
      "type": "function"
    },
    {
      "inputs": [],
      "name": "claimRewards",
      "outputs": [],
      "stateMutability": "nonpayable",
      "type": "function"
    },
    {
      "inputs": [
        {
          "internalType": "uint256",
          "name": "tokenId",
          "type": "uint256"
        }
      ],
      "name": "emergencyWithdraw",
      "outputs": [],
      "stateMutability": "nonpayable",
      "type": "function"
    },
    {
      "inputs": [],
      "name": "gameToken",
      "outputs": [
        {
          "internalType": "contract IGameToken",
          "name": "",
          "type": "address"
        }
      ],
      "stateMutability": "view",
      "type": "function"
    },
    {
      "inputs": [
        {
          "internalType": "address",
          "name": "user",
          "type": "address"
        }
      ],
      "name": "getUserStakes",
      "outputs": [
        {
          "components": [
            {
              "internalType": "uint256",
              "name": "tokenId",
              "type": "uint256"
            },
            {
              "internalType": "uint256",
              "name": "stakedAt",
              "type": "uint256"
            },
            {
              "internalType": "uint256",
              "name": "lastClaimAt",
              "type": "uint256"
            }
          ],
          "internalType": "struct CharacterStaking.StakeInfo[]",
          "name": "",
          "type": "tuple[]"
        }
      ],
      "stateMutability": "view",
      "type": "function"
    },
    {
      "inputs": [
        {
          "internalType": "uint8",
          "name": "",
          "type": "uint8"
        }
      ],
      "name": "levelMultiplier",
      "outputs": [
        {
          "internalType": "uint256",
          "name": "",
          "type": "uint256"
        }
      ],
      "stateMutability": "view",
      "type": "function"
    },
    {
      "inputs": [],
      "name": "minStakeTime",
      "outputs": [
        {
          "internalType": "uint256",
          "name": "",
          "type": "uint256"
        }
      ],
      "stateMutability": "view",
      "type": "function"
    },
    {
      "inputs": [],
      "name": "owner",
      "outputs": [
        {
          "internalType": "address",
          "name": "",
          "type": "address"
        }
      ],
      "stateMutability": "view",
      "type": "function"
    },
    {
      "inputs": [],
      "name": "pause",
      "outputs": [],
      "stateMutability": "nonpayable",
      "type": "function"
    },
    {
      "inputs": [],
      "name": "paused",
      "outputs": [
        {
          "internalType": "bool",
          "name": "",
          "type": "bool"
        }
      ],
      "stateMutability": "view",
      "type": "function"
    },
    {
      "inputs": [],
      "name": "renounceOwnership",
      "outputs": [],
      "stateMutability": "nonpayable",
      "type": "function"
    },
    {
      "inputs": [
        {
          "internalType": "address",
          "name": "_trigger",
          "type": "address"
        }
      ],
      "name": "setAchievementTrigger",
      "outputs": [],
      "stateMutability": "nonpayable",
      "type": "function"
    },
    {
      "inputs": [
        {
          "internalType": "uint8",
          "name": "level",
          "type": "uint8"
        },
        {
          "internalType": "uint256",
          "name": "multiplierPercentage",
          "type": "uint256"
        }
      ],
      "name": "setLevelMultiplier",
      "outputs": [],
      "stateMutability": "nonpayable",
      "type": "function"
    },
    {
      "inputs": [
        {
          "internalType": "uint256",
          "name": "_time",
          "type": "uint256"
        }
      ],
      "name": "setMinStakeTime",
      "outputs": [],
      "stateMutability": "nonpayable",
      "type": "function"
    },
    {
      "inputs": [
        {
          "internalType": "uint256",
          "name": "newRatePerDay",
          "type": "uint256"
        }
      ],
      "name": "setRewardRate",
      "outputs": [],
      "stateMutability": "nonpayable",
      "type": "function"
    },
    {
      "inputs": [
        {
          "internalType": "uint256",
          "name": "tokenId",
          "type": "uint256"
        }
      ],
      "name": "stake",
      "outputs": [],
      "stateMutability": "nonpayable",
      "type": "function"
    },
    {
      "inputs": [
        {
          "internalType": "uint256",
          "name": "",
          "type": "uint256"
        }
      ],
      "name": "tokenOwner",
      "outputs": [
        {
          "internalType": "address",
          "name": "",
          "type": "address"
        }
      ],
      "stateMutability": "view",
      "type": "function"
    },
    {
      "inputs": [
        {
          "internalType": "address",
          "name": "newOwner",
          "type": "address"
        }
      ],
      "name": "transferOwnership",
      "outputs": [],
      "stateMutability": "nonpayable",
      "type": "function"
    },
    {
      "inputs": [],
      "name": "unpause",
      "outputs": [],
      "stateMutability": "nonpayable",
      "type": "function"
    },
    {
      "inputs": [
        {
          "internalType": "uint256",
          "name": "tokenId",
          "type": "uint256"
        }
      ],
      "name": "unstake",
      "outputs": [],
      "stateMutability": "nonpayable",
      "type": "function"
    },
    {
      "inputs": [
        {
          "internalType": "address",
          "name": "",
          "type": "address"
        },
        {
          "internalType": "uint256",
          "name": "",
          "type": "uint256"
        }
      ],
      "name": "userStakes",
      "outputs": [
        {
          "internalType": "uint256",
          "name": "tokenId",
          "type": "uint256"
        },
        {
          "internalType": "uint256",
          "name": "stakedAt",
          "type": "uint256"
        },
        {
          "internalType": "uint256",
          "name": "lastClaimAt",
          "type": "uint256"
        }
      ],
      "stateMutability": "view",
      "type": "function"
    }
  ],
  "bytecode": "0x60c03461012657601f61161d38819003918201601f19168301916001600160401b0383118484101761012b57808492604094855283398101031261012657610052602061004b83610141565b9201610141565b90331561010d5760008054336001600160a01b0319821681178355604051946001600160a01b0394909385939192918416907f8be0079c531659141344cd1fd0a4f28419497f9722a3daafe3b4186f6b6457e09080a36001805562015180600755166080521660a052656943fdbce6846005556114c79081610156823960805181818161033a0152818161091c01528181610a7d01528181610d56015261129b015260a0518181816101f901528181610b1d0152610e070152f35b604051631e4fbdf760e01b815260006004820152602490fd5b600080fd5b634e487b7160e01b600052604160045260246000fd5b51906001600160a01b03821682036101265756fe6080604081815260048036101561001557600080fd5b600092833560e01c9081631caaa48714610f1f575080631f7678ce14610f005780632e17de7814610c8c578063300f6f6014610c63578063372500ab14610aac578063384d10ee14610a685780633f4ba83a146109fb5780635312ea8e146108b95780635c975abb1461089457806364ab867514610867578063676a506814610836578063715018a6146107dc578063842e2981146106e65780638456cb59146106875780638da5cb5b1461065f5780639e447fc61461060d578063a1301da9146105a6578063a694fc3a146102f5578063afbf3440146102d6578063b5d5b5fa14610270578063be34ab4514610228578063c3dfdae6146101e4578063df4eafd4146101be5763f2fde38b1461012b57600080fd5b346101ba5760203660031901126101ba57610144610f4d565b9061014d611206565b6001600160a01b039182169283156101a4575050600054826bffffffffffffffffffffffff60a01b821617600055167f8be0079c531659141344cd1fd0a4f28419497f9722a3daafe3b4186f6b6457e0600080a380f35b51631e4fbdf760e01b8152908101849052602490fd5b8280fd5b8382346101e05760203660031901126101e0576101d9611206565b3560075580f35b5080fd5b5050346101e057816003193601126101e057517f00000000000000000000000000000000000000000000000000000000000000006001600160a01b03168152602090f35b833461026d57602036600319011261026d57610242610f4d565b61024a611206565b60018060a01b03166bffffffffffffffffffffffff60a01b600254161760025580f35b80fd5b5050346101e057806003193601126101e05761028a610f4d565b6001600160a01b0316825260036020528082208054602435939084101561026d57506060926102b891610f78565b50805491600260018301549201549181519384526020840152820152f35b5050346101e057816003193601126101e0576020906005549051908152f35b5090346101ba57602090816003193601126104ca5782359261031561103a565b61031d611171565b81516331a9108f60e11b81528181018590526001600160a01b03907f00000000000000000000000000000000000000000000000000000000000000008216908581602481855afa90811561059c578891610562575b50823391160361051f578087913b156101e05784516323b872dd60e01b815233858201908152306020820152604081018990529091839183919082908490829060600103925af18015610515576104fd575b5050338652600384528286208351906103dc82610fd4565b86825285820142815285830191428352805490680100000000000000008210156104ea579061041091600182018155610f78565b9390936104d8575183555160018301555160029182015585875282855283872080546001600160a01b0319163317905554869291169081610480575b5050507f1449c6dd7851abc30abf37f57715f492010519147cc2652fbc38202c18a6ee909051914283523392a36001805580f35b813b156101ba57829160248392865194859384926301884bd760e31b845233908401525af180156104ce576104b6575b8061044c565b6104bf90610faa565b6104ca5783386104b0565b8380fd5b83513d84823e3d90fd5b634e487b7160e01b8a5289865260248afd5b634e487b7160e01b8b526041875260248bfd5b61050690610faa565b6105115785386103c4565b8580fd5b85513d84823e3d90fd5b835162461bcd60e51b8152808401869052601a60248201527f4e6f7420746865206f776e6572206f662074686520746f6b656e0000000000006044820152606490fd5b90508581813d8311610595575b6105798183610ff0565b81010312610591575182811681036105915738610372565b8780fd5b503d61056f565b85513d8a823e3d90fd5b5050346101e057806003193601126101e0577f185bc5b31b5857220b6fed1d5c5b0b8c5dfdffae35a1ce159996054276d56432906105e2610f68565b60ff602435916105f0611206565b16908185526006602052808386205582519182526020820152a180f35b50346101ba5760203660031901126101ba577f41d466ebd06fb97e7786086ac8b69b7eb7da798592036251291d34e9791cde019162015180602092610650611206565b3504908160055551908152a180f35b5050346101e057816003193601126101e057905490516001600160a01b039091168152602090f35b5050346101e057816003193601126101e05760207f62e78cea01bee320cd4e420270b5ea74000d11b0c9f74754ebdbfc544b05a258916106c5611206565b6106cd611171565b835460ff60a01b1916600160a01b17845551338152a180f35b508290346101e0576020806003193601126101ba576001600160a01b0361070b610f4d565b168352600390600381528484209283549067ffffffffffffffff82116107c957508551919492610741600583901b870184610ff0565b8183528583018095855286852085915b8483106107a5575050505050845193808501918186525180925285850193925b82811061077e5785850386f35b83518051865280830151868401528701518786015260609094019392810192600101610771565b83896001926107b7859c999a9c611012565b81520192019201919097959497610751565b634e487b7160e01b865260419052602485fd5b833461026d578060031936011261026d576107f5611206565b600080546001600160a01b0319811682556001600160a01b03167f8be0079c531659141344cd1fd0a4f28419497f9722a3daafe3b4186f6b6457e08280a380f35b5050346101e05760203660031901126101e0578060209260ff610857610f68565b1681526006845220549051908152f35b5050346101e05760203660031901126101e05760209061088d610888610f4d565b6111b5565b9051908152f35b5050346101e057816003193601126101e05760ff6020925460a01c1690519015158152f35b5090346101ba5760203660031901126101ba578135916108d761103a565b8284526020819052818420546001600160a01b0390811633036109c757908491610901853361105d565b848352602082905283832080546001600160a01b03191690557f000000000000000000000000000000000000000000000000000000000000000016803b156101ba5783516323b872dd60e01b81523092810192835233602084015260408301869052918391839182908490829060600103925af180156104ce576109b3575b5050514281527f7fc4727e062e336010f2c282598ef5f14facb3de68cf8195c2f23e1454b2b74e60203392a36001805580f35b6109bc90610faa565b6101ba578238610980565b506020606492519162461bcd60e51b8352820152600e60248201526d2737ba103a34329039ba30b5b2b960911b6044820152fd5b50346101ba57826003193601126101ba57610a14611206565b82549060ff8260a01c1615610a5a575060ff60a01b19168255513381527f5db9ee0a495bf2e6ff9c91a7834c1ba4fdd244a5e8aa4e537bd38aeae4b073aa90602090a180f35b8251638dfc202b60e01b8152fd5b5050346101e057816003193601126101e057517f00000000000000000000000000000000000000000000000000000000000000006001600160a01b03168152602090f35b50913461026d578060031936011261026d57610ac661103a565b610ace611171565b610ad7336111b5565b908115610c2a57338152600360205282812091815b8354811015610b0f5780610b0260019286610f78565b5060024291015501610aec565b508382866001600160a01b037f00000000000000000000000000000000000000000000000000000000000000008116803b156104ca5784516340c10f1960e01b815233848201908152602081018890529091859183919082908490829060400103925af18015610c2057908491610c0c575b5050600254169081610bc2575b505050519081527ffc30cddea38e2bf4d6ea7d3f9ed3b6ad7f176419f4963bd81318067a4aee73fe60203392a26001805580f35b813b156101ba57829160248392865194859384926301884bd760e31b845233908401525af180156104ce57610bf8575b80610b8e565b610c0190610faa565b6101ba578284610bf2565b610c1590610faa565b6101ba578287610b81565b85513d86823e3d90fd5b825162461bcd60e51b815260208186015260136024820152724e6f207265776172647320746f20636c61696d60681b6044820152606490fd5b5050346101e057816003193601126101e05760025490516001600160a01b039091168152602090f35b5090346101ba576020806003193601126104ca57823591610cab61103a565b828552838252808520546001600160a01b03949085163303610ebf573386526003835281862094869587805b8254811015610eb35787610ceb8285610f78565b505414610cfa57600101610cd7565b610d24919596979850610d1e610d19610d138386610f78565b50611012565b611245565b92610f78565b506002429101555b80610e00575b50610d3d863361105d565b85835281855283832080546001600160a01b03191690557f000000000000000000000000000000000000000000000000000000000000000016803b156101ba5783516323b872dd60e01b81523092810192835233602084015260408301879052918391839182908490829060600103925af180156104ce57610dec575b50505142815233917f7fc4727e062e336010f2c282598ef5f14facb3de68cf8195c2f23e1454b2b74e91a36001805580f35b610df590610faa565b6104ca578338610dba565b90809293507f000000000000000000000000000000000000000000000000000000000000000016803b156105915784516340c10f1960e01b815233858201908152602081018490529091899183919082908490829060400103925af1801561059c57610e9c575b509086929184519081527ffc30cddea38e2bf4d6ea7d3f9ed3b6ad7f176419f4963bd81318067a4aee73fe863392a238610d32565b610eaa909791939297610faa565b95909138610e67565b50939495969050610d2c565b82606492519162461bcd60e51b8352820152601b60248201527f4e6f7420746865207374616b6572206f662074686520746f6b656e00000000006044820152fd5b5050346101e057816003193601126101e0576020906007549051908152f35b90508383346101e05760203660031901126101e0578335825260209384529020546001600160a01b03168152f35b600435906001600160a01b0382168203610f6357565b600080fd5b6004359060ff82168203610f6357565b8054821015610f94576000526003602060002091020190600090565b634e487b7160e01b600052603260045260246000fd5b67ffffffffffffffff8111610fbe57604052565b634e487b7160e01b600052604160045260246000fd5b6060810190811067ffffffffffffffff821117610fbe57604052565b90601f8019910116810190811067ffffffffffffffff821117610fbe57604052565b9060405161101f81610fd4565b60406002829480548452600181015460208501520154910152565b60026001541461104b576002600155565b604051633ee5aeb560e01b8152600490fd5b6001600160a01b03166000908152600360205260408120815b81548082101561116a578461108b8385610f78565b50541461109b5750600101611076565b9192935060001991828101908111611156576110ba6110c29185610f78565b509184610f78565b91909161114257808203611124575b5050815480156111105701916110e78383610f78565b6110fc57808260029255826001820155015555565b634e487b7160e01b82526004829052602482fd5b634e487b7160e01b84526031600452602484fd5b805482556001808201549083015560028091015491015538806110d1565b634e487b7160e01b85526004859052602485fd5b634e487b7160e01b85526011600452602485fd5b5050505050565b60ff60005460a01c1661118057565b60405163d93c066560e01b8152600490fd5b9190820180921161119f57565b634e487b7160e01b600052601160045260246000fd5b6001600160a01b03166000908152600360205260408120805482915b8183106111de5750505090565b9091926111fd6001916111f7610d19610d138887610f78565b90611192565b930191906111d1565b6000546001600160a01b0316330361121a57565b60405163118cdaa760e01b8152336004820152602490fd5b8181029291811591840414171561119f57565b60206112578183015160075490611192565b421061148a57604080830151420342811161119f5760055461127891611232565b92518151639b046ed360e01b8152600481019190915260009290919083836024817f00000000000000000000000000000000000000000000000000000000000000006001600160a01b03165afa928315611480578493611339575b5060069060ff84511685525282205480611321575b5061010001516112f6575090565b8160011b918083046002149015171561130d575090565b634e487b7160e01b81526011600452602490fd5b6113316064916101009395611232565b0492906112e8565b9092503d8085833e61134b8183610ff0565b8101838282031261147c57815167ffffffffffffffff92838211611478570190610120928383830312611478578451938401848110828211176114645785528251845285830151868501528483015185850152606083015160608501526080830151608085015260a083015164ffffffffff811681036105915760a085015260c083015160c085015260e083015181811161059157830182601f820112156105915780519182116114645785519261140c601f8401601f1916890185610ff0565b8284528783830101116105915787918791835b82811061144d5750508301015260e083015261010080910151908115158203610511578201529160066112d3565b8181018401518682018501528a945089930161141f565b634e487b7160e01b88526041600452602488fd5b8680fd5b8480fd5b82513d86823e3d90fd5b505060009056fea26469706673582212208933cdcb2d48735a1a78eb6b9da179c91e0021a4e5897ea7e09ed014e29fddd564736f6c63430008180033",
  "linkReferences": {},
  "deployedLinkReferences": {}
}