{
  "_format": "hh-sol-artifact-1",
  "contractName": "GameCharacter",
  "sourceName": "contracts/GameCharacter.sol",
  "abi": [
    {
      "inputs": [
        {
          "internalType": "address",
          "name": "vrfCoordinator",
          "type": "address"
        }
      ],
      "stateMutability": "nonpayable",
      "type": "constructor"
    },
    {
      "inputs": [
        {
          "internalType": "uint256",
          "name": "tokenId",
          "type": "uint256"
        }
      ],
      "name": "CharacterDoesNotExist",
      "type": "error"
    },
    {
      "inputs": [
        {
          "internalType": "string",
          "name": "characterClass",
          "type": "string"
        }
      ],
      "name": "InvalidCharacterClass",
      "type": "error"
    },
    {
      "inputs": [
        {
          "internalType": "uint256",
          "name": "tokenId",
          "type": "uint256"
        },
        {
          "internalType": "uint256",
          "name": "currentExp",
          "type": "uint256"
        },
        {
          "internalType": "uint256",
          "name": "requiredExp",
          "type": "uint256"
        }
      ],
      "name": "LevelUpFailed",
      "type": "error"
    },
    {
      "inputs": [
        {
          "internalType": "uint256",
          "name": "tokenId",
          "type": "uint256"
        },
        {
          "internalType": "uint8",
          "name": "maxLevel",
          "type": "uint8"
        }
      ],
      "name": "MaxLevelReached",
      "type": "error"
    },
    {
      "inputs": [
        {
          "internalType": "uint256",
          "name": "tokenId",
          "type": "uint256"
        },
        {
          "internalType": "address",
          "name": "caller",
          "type": "address"
        }
      ],
      "name": "NotCharacterOwner",
      "type": "error"
    },
    {
      "inputs": [
        {
          "internalType": "address",
          "name": "have",
          "type": "address"
        },
        {
          "internalType": "address",
          "name": "want",
          "type": "address"
        }
      ],
      "name": "OnlyCoordinatorCanFulfill",
      "type": "error"
    },
    {
      "inputs": [],
      "name": "OnlySimulatedBackend",
      "type": "error"
    },
    {
      "inputs": [
        {
          "internalType": "address",
          "name": "caller",
          "type": "address"
        }
      ],
      "name": "UnauthorizedCaller",
      "type": "error"
    },
    {
      "anonymous": false,
      "inputs": [
        {
          "indexed": false,
          "internalType": "address",
          "name": "previousAdmin",
          "type": "address"
        },
        {
          "indexed": false,
          "internalType": "address",
          "name": "newAdmin",
          "type": "address"
        }
      ],
      "name": "AdminChanged",
      "type": "event"
    },
    {
      "anonymous": false,
      "inputs": [
        {
          "indexed": true,
          "internalType": "address",
          "name": "owner",
          "type": "address"
        },
        {
          "indexed": true,
          "internalType": "address",
          "name": "approved",
          "type": "address"
        },
        {
          "indexed": true,
          "internalType": "uint256",
          "name": "tokenId",
          "type": "uint256"
        }
      ],
      "name": "Approval",
      "type": "event"
    },
    {
      "anonymous": false,
      "inputs": [
        {
          "indexed": true,
          "internalType": "address",
          "name": "owner",
          "type": "address"
        },
        {
          "indexed": true,
          "internalType": "address",
          "name": "operator",
          "type": "address"
        },
        {
          "indexed": false,
          "internalType": "bool",
          "name": "approved",
          "type": "bool"
        }
      ],
      "name": "ApprovalForAll",
      "type": "event"
    },
    {
      "anonymous": false,
      "inputs": [
        {
          "indexed": true,
          "internalType": "uint256",
          "name": "tokenId",
          "type": "uint256"
        }
      ],
      "name": "AutoXPEnabled",
      "type": "event"
    },
    {
      "anonymous": false,
      "inputs": [
        {
          "indexed": true,
          "internalType": "address",
          "name": "beacon",
          "type": "address"
        }
      ],
      "name": "BeaconUpgraded",
      "type": "event"
    },
    {
      "anonymous": false,
      "inputs": [
        {
          "indexed": true,
          "internalType": "uint256",
          "name": "tokenId",
          "type": "uint256"
        },
        {
          "indexed": true,
          "internalType": "address",
          "name": "owner",
          "type": "address"
        },
        {
          "indexed": false,
          "internalType": "string",
          "name": "characterClass",
          "type": "string"
        }
      ],
      "name": "CharacterMinted",
      "type": "event"
    },
    {
      "anonymous": false,
      "inputs": [
        {
          "indexed": false,
          "internalType": "string",
          "name": "providedClass",
          "type": "string"
        },
        {
          "indexed": false,
          "internalType": "bytes32",
          "name": "providedHash",
          "type": "bytes32"
        },
        {
          "indexed": false,
          "internalType": "bool",
          "name": "isValid",
          "type": "bool"
        }
      ],
      "name": "ClassValidationDebug",
      "type": "event"
    },
    {
      "anonymous": false,
      "inputs": [
        {
          "indexed": true,
          "internalType": "uint256",
          "name": "tokenId",
          "type": "uint256"
        },
        {
          "indexed": false,
          "internalType": "uint16",
          "name": "amount",
          "type": "uint16"
        },
        {
          "indexed": false,
          "internalType": "uint256",
          "name": "newTotalExperience",
          "type": "uint256"
        }
      ],
      "name": "ExperienceGained",
      "type": "event"
    },
    {
      "anonymous": false,
      "inputs": [
        {
          "indexed": false,
          "internalType": "uint8",
          "name": "version",
          "type": "uint8"
        }
      ],
      "name": "Initialized",
      "type": "event"
    },
    {
      "anonymous": false,
      "inputs": [
        {
          "indexed": true,
          "internalType": "uint256",
          "name": "tokenId",
          "type": "uint256"
        },
        {
          "indexed": false,
          "internalType": "uint256",
          "name": "oldLevel",
          "type": "uint256"
        },
        {
          "indexed": false,
          "internalType": "uint256",
          "name": "newLevel",
          "type": "uint256"
        }
      ],
      "name": "LevelUp",
      "type": "event"
    },
    {
      "anonymous": false,
      "inputs": [
        {
          "indexed": true,
          "internalType": "uint256",
          "name": "requestId",
          "type": "uint256"
        },
        {
          "indexed": true,
          "internalType": "uint256",
          "name": "tokenId",
          "type": "uint256"
        }
      ],
      "name": "MintRequested",
      "type": "event"
    },
    {
      "anonymous": false,
      "inputs": [
        {
          "indexed": true,
          "internalType": "uint256",
          "name": "tokenId",
          "type": "uint256"
        },
        {
          "indexed": false,
          "internalType": "uint8",
          "name": "mutationCount",
          "type": "uint8"
        }
      ],
      "name": "MutationApplied",
      "type": "event"
    },
    {
      "anonymous": false,
      "inputs": [
        {
          "indexed": true,
          "internalType": "address",
          "name": "previousOwner",
          "type": "address"
        },
        {
          "indexed": true,
          "internalType": "address",
          "name": "newOwner",
          "type": "address"
        }
      ],
      "name": "OwnershipTransferred",
      "type": "event"
    },
    {
      "anonymous": false,
      "inputs": [
        {
          "indexed": true,
          "internalType": "uint256",
          "name": "tokenId",
          "type": "uint256"
        },
        {
          "indexed": false,
          "internalType": "uint256",
          "name": "amount",
          "type": "uint256"
        }
      ],
      "name": "PassiveXPGranted",
      "type": "event"
    },
    {
      "anonymous": false,
      "inputs": [
        {
          "indexed": true,
          "internalType": "uint256",
          "name": "tokenId",
          "type": "uint256"
        },
        {
          "indexed": false,
          "internalType": "uint256[3]",
          "name": "traits",
          "type": "uint256[3]"
        }
      ],
      "name": "TraitsRevealed",
      "type": "event"
    },
    {
      "anonymous": false,
      "inputs": [
        {
          "indexed": true,
          "internalType": "uint256",
          "name": "tokenId",
          "type": "uint256"
        },
        {
          "indexed": false,
          "internalType": "uint256",
          "name": "newLevel",
          "type": "uint256"
        },
        {
          "indexed": false,
          "internalType": "uint256",
          "name": "newStrength",
          "type": "uint256"
        },
        {
          "indexed": false,
          "internalType": "uint256",
          "name": "newAgility",
          "type": "uint256"
        },
        {
          "indexed": false,
          "internalType": "uint256",
          "name": "newIntelligence",
          "type": "uint256"
        },
        {
          "indexed": false,
          "internalType": "uint256",
          "name": "newExperience",
          "type": "uint256"
        }
      ],
      "name": "TraitsUpdated",
      "type": "event"
    },
    {
      "anonymous": false,
      "inputs": [
        {
          "indexed": true,
          "internalType": "address",
          "name": "from",
          "type": "address"
        },
        {
          "indexed": true,
          "internalType": "address",
          "name": "to",
          "type": "address"
        },
        {
          "indexed": true,
          "internalType": "uint256",
          "name": "tokenId",
          "type": "uint256"
        }
      ],
      "name": "Transfer",
      "type": "event"
    },
    {
      "anonymous": false,
      "inputs": [
        {
          "indexed": true,
          "internalType": "address",
          "name": "implementation",
          "type": "address"
        }
      ],
      "name": "Upgraded",
      "type": "event"
    },
    {
      "anonymous": false,
      "inputs": [
        {
          "indexed": false,
          "internalType": "uint256",
          "name": "timestamp",
          "type": "uint256"
        }
      ],
      "name": "UpkeepPerformed",
      "type": "event"
    },
    {
      "inputs": [],
      "name": "COORDINATOR",
      "outputs": [
        {
          "internalType": "contract VRFCoordinatorV2Interface",
          "name": "",
          "type": "address"
        }
      ],
      "stateMutability": "view",
      "type": "function"
    },
    {
      "inputs": [],
      "name": "achievementTrigger",
      "outputs": [
        {
          "internalType": "contract IAchievementTrigger",
          "name": "",
          "type": "address"
        }
      ],
      "stateMutability": "view",
      "type": "function"
    },
    {
      "inputs": [
        {
          "internalType": "address",
          "name": "authAddress",
          "type": "address"
        }
      ],
      "name": "addAuthorizedAddress",
      "outputs": [],
      "stateMutability": "nonpayable",
      "type": "function"
    },
    {
      "inputs": [
        {
          "internalType": "address",
          "name": "to",
          "type": "address"
        },
        {
          "internalType": "string",
          "name": "characterClass",
          "type": "string"
        }
      ],
      "name": "adminMintCharacter",
      "outputs": [
        {
          "internalType": "uint256",
          "name": "",
          "type": "uint256"
        }
      ],
      "stateMutability": "nonpayable",
      "type": "function"
    },
    {
      "inputs": [
        {
          "internalType": "address",
          "name": "to",
          "type": "address"
        },
        {
          "internalType": "uint256",
          "name": "tokenId",
          "type": "uint256"
        }
      ],
      "name": "approve",
      "outputs": [],
      "stateMutability": "nonpayable",
      "type": "function"
    },
    {
      "inputs": [
        {
          "internalType": "address",
          "name": "owner",
          "type": "address"
        }
      ],
      "name": "balanceOf",
      "outputs": [
        {
          "internalType": "uint256",
          "name": "",
          "type": "uint256"
        }
      ],
      "stateMutability": "view",
      "type": "function"
    },
    {
      "inputs": [
        {
          "internalType": "uint256",
          "name": "tokenId",
          "type": "uint256"
        },
        {
          "internalType": "uint16",
          "name": "strengthBoost",
          "type": "uint16"
        },
        {
          "internalType": "uint16",
          "name": "agilityBoost",
          "type": "uint16"
        },
        {
          "internalType": "uint16",
          "name": "intelligenceBoost",
          "type": "uint16"
        }
      ],
      "name": "boostTraits",
      "outputs": [],
      "stateMutability": "nonpayable",
      "type": "function"
    },
    {
      "inputs": [
        {
          "internalType": "uint256",
          "name": "tokenId",
          "type": "uint256"
        }
      ],
      "name": "burn",
      "outputs": [],
      "stateMutability": "nonpayable",
      "type": "function"
    },
    {
      "inputs": [
        {
          "internalType": "uint8",
          "name": "level",
          "type": "uint8"
        }
      ],
      "name": "calculateXPForLevel",
      "outputs": [
        {
          "internalType": "uint256",
          "name": "",
          "type": "uint256"
        }
      ],
      "stateMutability": "pure",
      "type": "function"
    },
    {
      "inputs": [],
      "name": "callbackGasLimit",
      "outputs": [
        {
          "internalType": "uint32",
          "name": "",
          "type": "uint32"
        }
      ],
      "stateMutability": "view",
      "type": "function"
    },
    {
      "inputs": [
        {
          "internalType": "bytes",
          "name": "",
          "type": "bytes"
        }
      ],
      "name": "checkUpkeep",
      "outputs": [
        {
          "internalType": "bool",
          "name": "upkeepNeeded",
          "type": "bool"
        },
        {
          "internalType": "bytes",
          "name": "performData",
          "type": "bytes"
        }
      ],
      "stateMutability": "view",
      "type": "function"
    },
    {
      "inputs": [
        {
          "internalType": "uint256",
          "name": "tokenId",
          "type": "uint256"
        }
      ],
      "name": "enableAutoXP",
      "outputs": [],
      "stateMutability": "nonpayable",
      "type": "function"
    },
    {
      "inputs": [
        {
          "internalType": "uint256",
          "name": "tokenId",
          "type": "uint256"
        },
        {
          "internalType": "uint16",
          "name": "xpAmount",
          "type": "uint16"
        }
      ],
      "name": "gainExperience",
      "outputs": [],
      "stateMutability": "nonpayable",
      "type": "function"
    },
    {
      "inputs": [
        {
          "internalType": "uint256",
          "name": "tokenId",
          "type": "uint256"
        }
      ],
      "name": "getApproved",
      "outputs": [
        {
          "internalType": "address",
          "name": "",
          "type": "address"
        }
      ],
      "stateMutability": "view",
      "type": "function"
    },
    {
      "inputs": [
        {
          "internalType": "uint256",
          "name": "tokenId",
          "type": "uint256"
        }
      ],
      "name": "getCharacterPower",
      "outputs": [
        {
          "internalType": "uint256",
          "name": "",
          "type": "uint256"
        }
      ],
      "stateMutability": "view",
      "type": "function"
    },
    {
      "inputs": [
        {
          "internalType": "uint256",
          "name": "tokenId",
          "type": "uint256"
        }
      ],
      "name": "getCharacterTraits",
      "outputs": [
        {
          "components": [
            {
              "internalType": "uint256",
              "name": "level",
              "type": "uint256"
            },
            {
              "internalType": "uint256",
              "name": "strength",
              "type": "uint256"
            },
            {
              "internalType": "uint256",
              "name": "agility",
              "type": "uint256"
            },
            {
              "internalType": "uint256",
              "name": "intelligence",
              "type": "uint256"
            },
            {
              "internalType": "uint256",
              "name": "experience",
              "type": "uint256"
            },
            {
              "internalType": "uint40",
              "name": "lastTrainedAt",
              "type": "uint40"
            },
            {
              "internalType": "uint256",
              "name": "generation",
              "type": "uint256"
            },
            {
              "internalType": "string",
              "name": "characterClass",
              "type": "string"
            },
            {
              "components": [
                {
                  "internalType": "bool",
                  "name": "strengthDominant",
                  "type": "bool"
                },
                {
                  "internalType": "bool",
                  "name": "agilityDominant",
                  "type": "bool"
                },
                {
                  "internalType": "bool",
                  "name": "intelligenceDominant",
                  "type": "bool"
                },
                {
                  "internalType": "uint8",
                  "name": "hiddenStrength",
                  "type": "uint8"
                },
                {
                  "internalType": "uint8",
                  "name": "hiddenAgility",
                  "type": "uint8"
                },
                {
                  "internalType": "uint8",
                  "name": "hiddenIntelligence",
                  "type": "uint8"
                }
              ],
              "internalType": "struct GameCharacter.GeneticMarkers",
              "name": "genetics",
              "type": "tuple"
            },
            {
              "internalType": "uint8",
              "name": "mutationCount",
              "type": "uint8"
            },
            {
              "internalType": "uint8",
              "name": "breedCount",
              "type": "uint8"
            },
            {
              "internalType": "bool",
              "name": "isFused",
              "type": "bool"
            }
          ],
          "internalType": "struct GameCharacter.CharacterTraits",
          "name": "",
          "type": "tuple"
        }
      ],
      "stateMutability": "view",
      "type": "function"
    },
    {
      "inputs": [],
      "name": "getMaxLevel",
      "outputs": [
        {
          "internalType": "uint8",
          "name": "",
          "type": "uint8"
        }
      ],
      "stateMutability": "pure",
      "type": "function"
    },
    {
      "inputs": [
        {
          "internalType": "uint256",
          "name": "tokenId",
          "type": "uint256"
        }
      ],
      "name": "getParents",
      "outputs": [
        {
          "internalType": "uint256[2]",
          "name": "",
          "type": "uint256[2]"
        }
      ],
      "stateMutability": "view",
      "type": "function"
    },
    {
      "inputs": [
        {
          "internalType": "string",
          "name": "name_",
          "type": "string"
        },
        {
          "internalType": "string",
          "name": "symbol_",
          "type": "string"
        },
        {
          "internalType": "address",
          "name": "vrfCoordinator",
          "type": "address"
        },
        {
          "internalType": "uint64",
          "name": "subscriptionId",
          "type": "uint64"
        },
        {
          "internalType": "bytes32",
          "name": "_keyHash",
          "type": "bytes32"
        }
      ],
      "name": "initialize",
      "outputs": [],
      "stateMutability": "nonpayable",
      "type": "function"
    },
    {
      "inputs": [
        {
          "internalType": "address",
          "name": "owner",
          "type": "address"
        },
        {
          "internalType": "address",
          "name": "operator",
          "type": "address"
        }
      ],
      "name": "isApprovedForAll",
      "outputs": [
        {
          "internalType": "bool",
          "name": "",
          "type": "bool"
        }
      ],
      "stateMutability": "view",
      "type": "function"
    },
    {
      "inputs": [
        {
          "internalType": "address",
          "name": "authAddress",
          "type": "address"
        }
      ],
      "name": "isAuthorized",
      "outputs": [
        {
          "internalType": "bool",
          "name": "",
          "type": "bool"
        }
      ],
      "stateMutability": "view",
      "type": "function"
    },
    {
      "inputs": [
        {
          "internalType": "uint256",
          "name": "",
          "type": "uint256"
        }
      ],
      "name": "isAutoXPEnabled",
      "outputs": [
        {
          "internalType": "bool",
          "name": "",
          "type": "bool"
        }
      ],
      "stateMutability": "view",
      "type": "function"
    },
    {
      "inputs": [],
      "name": "keyHash",
      "outputs": [
        {
          "internalType": "bytes32",
          "name": "",
          "type": "bytes32"
        }
      ],
      "stateMutability": "view",
      "type": "function"
    },
    {
      "inputs": [],
      "name": "lastUpdateTimestamp",
      "outputs": [
        {
          "internalType": "uint256",
          "name": "",
          "type": "uint256"
        }
      ],
      "stateMutability": "view",
      "type": "function"
    },
    {
      "inputs": [
        {
          "internalType": "string",
          "name": "characterClass",
          "type": "string"
        }
      ],
      "name": "mintCharacter",
      "outputs": [
        {
          "internalType": "uint256",
          "name": "",
          "type": "uint256"
        }
      ],
      "stateMutability": "nonpayable",
      "type": "function"
    },
    {
      "inputs": [
        {
          "internalType": "address",
          "name": "to",
          "type": "address"
        },
        {
          "internalType": "string",
          "name": "characterClass",
          "type": "string"
        },
        {
          "internalType": "uint256",
          "name": "generation",
          "type": "uint256"
        },
        {
          "internalType": "uint256",
          "name": "strength",
          "type": "uint256"
        },
        {
          "internalType": "uint256",
          "name": "agility",
          "type": "uint256"
        },
        {
          "internalType": "uint256",
          "name": "intelligence",
          "type": "uint256"
        },
        {
          "internalType": "uint256",
          "name": "parent1",
          "type": "uint256"
        },
        {
          "internalType": "uint256",
          "name": "parent2",
          "type": "uint256"
        },
        {
          "components": [
            {
              "internalType": "bool",
              "name": "strengthDominant",
              "type": "bool"
            },
            {
              "internalType": "bool",
              "name": "agilityDominant",
              "type": "bool"
            },
            {
              "internalType": "bool",
              "name": "intelligenceDominant",
              "type": "bool"
            },
            {
              "internalType": "uint8",
              "name": "hiddenStrength",
              "type": "uint8"
            },
            {
              "internalType": "uint8",
              "name": "hiddenAgility",
              "type": "uint8"
            },
            {
              "internalType": "uint8",
              "name": "hiddenIntelligence",
              "type": "uint8"
            }
          ],
          "internalType": "struct GameCharacter.GeneticMarkers",
          "name": "genetics",
          "type": "tuple"
        },
        {
          "internalType": "uint8",
          "name": "mutationCount",
          "type": "uint8"
        },
        {
          "internalType": "uint256",
          "name": "startingLevel",
          "type": "uint256"
        },
        {
          "internalType": "bool",
          "name": "isFused",
          "type": "bool"
        }
      ],
      "name": "mintOffspring",
      "outputs": [
        {
          "internalType": "uint256",
          "name": "",
          "type": "uint256"
        }
      ],
      "stateMutability": "nonpayable",
      "type": "function"
    },
    {
      "inputs": [],
      "name": "name",
      "outputs": [
        {
          "internalType": "string",
          "name": "",
          "type": "string"
        }
      ],
      "stateMutability": "view",
      "type": "function"
    },
    {
      "inputs": [],
      "name": "numWords",
      "outputs": [
        {
          "internalType": "uint32",
          "name": "",
          "type": "uint32"
        }
      ],
      "stateMutability": "view",
      "type": "function"
    },
    {
      "inputs": [],
      "name": "owner",
      "outputs": [
        {
          "internalType": "address",
          "name": "",
          "type": "address"
        }
      ],
      "stateMutability": "view",
      "type": "function"
    },
    {
      "inputs": [
        {
          "internalType": "uint256",
          "name": "tokenId",
          "type": "uint256"
        }
      ],
      "name": "ownerOf",
      "outputs": [
        {
          "internalType": "address",
          "name": "",
          "type": "address"
        }
      ],
      "stateMutability": "view",
      "type": "function"
    },
    {
      "inputs": [],
      "name": "passiveXPAmount",
      "outputs": [
        {
          "internalType": "uint256",
          "name": "",
          "type": "uint256"
        }
      ],
      "stateMutability": "view",
      "type": "function"
    },
    {
      "inputs": [
        {
          "internalType": "bytes",
          "name": "",
          "type": "bytes"
        }
      ],
      "name": "performUpkeep",
      "outputs": [],
      "stateMutability": "nonpayable",
      "type": "function"
    },
    {
      "inputs": [],
      "name": "proxiableUUID",
      "outputs": [
        {
          "internalType": "bytes32",
          "name": "",
          "type": "bytes32"
        }
      ],
      "stateMutability": "view",
      "type": "function"
    },
    {
      "inputs": [
        {
          "internalType": "uint256",
          "name": "requestId",
          "type": "uint256"
        },
        {
          "internalType": "uint256[]",
          "name": "randomWords",
          "type": "uint256[]"
        }
      ],
      "name": "rawFulfillRandomWords",
      "outputs": [],
      "stateMutability": "nonpayable",
      "type": "function"
    },
    {
      "inputs": [
        {
          "internalType": "address",
          "name": "authAddress",
          "type": "address"
        }
      ],
      "name": "removeAuthorizedAddress",
      "outputs": [],
      "stateMutability": "nonpayable",
      "type": "function"
    },
    {
      "inputs": [],
      "name": "renounceOwnership",
      "outputs": [],
      "stateMutability": "nonpayable",
      "type": "function"
    },
    {
      "inputs": [],
      "name": "requestConfirmations",
      "outputs": [
        {
          "internalType": "uint16",
          "name": "",
          "type": "uint16"
        }
      ],
      "stateMutability": "view",
      "type": "function"
    },
    {
      "inputs": [
        {
          "internalType": "uint256",
          "name": "",
          "type": "uint256"
        }
      ],
      "name": "requestToMinter",
      "outputs": [
        {
          "internalType": "address",
          "name": "",
          "type": "address"
        }
      ],
      "stateMutability": "view",
      "type": "function"
    },
    {
      "inputs": [
        {
          "internalType": "uint256",
          "name": "",
          "type": "uint256"
        }
      ],
      "name": "requestToTokenId",
      "outputs": [
        {
          "internalType": "uint256",
          "name": "",
          "type": "uint256"
        }
      ],
      "stateMutability": "view",
      "type": "function"
    },
    {
      "inputs": [],
      "name": "s_subscriptionId",
      "outputs": [
        {
          "internalType": "uint64",
          "name": "",
          "type": "uint64"
        }
      ],
      "stateMutability": "view",
      "type": "function"
    },
    {
      "inputs": [
        {
          "internalType": "address",
          "name": "from",
          "type": "address"
        },
        {
          "internalType": "address",
          "name": "to",
          "type": "address"
        },
        {
          "internalType": "uint256",
          "name": "tokenId",
          "type": "uint256"
        }
      ],
      "name": "safeTransferFrom",
      "outputs": [],
      "stateMutability": "nonpayable",
      "type": "function"
    },
    {
      "inputs": [
        {
          "internalType": "address",
          "name": "from",
          "type": "address"
        },
        {
          "internalType": "address",
          "name": "to",
          "type": "address"
        },
        {
          "internalType": "uint256",
          "name": "tokenId",
          "type": "uint256"
        },
        {
          "internalType": "bytes",
          "name": "data",
          "type": "bytes"
        }
      ],
      "name": "safeTransferFrom",
      "outputs": [],
      "stateMutability": "nonpayable",
      "type": "function"
    },
    {
      "inputs": [
        {
          "internalType": "address",
          "name": "_trigger",
          "type": "address"
        }
      ],
      "name": "setAchievementTrigger",
      "outputs": [],
      "stateMutability": "nonpayable",
      "type": "function"
    },
    {
      "inputs": [
        {
          "internalType": "address",
          "name": "operator",
          "type": "address"
        },
        {
          "internalType": "bool",
          "name": "approved",
          "type": "bool"
        }
      ],
      "name": "setApprovalForAll",
      "outputs": [],
      "stateMutability": "nonpayable",
      "type": "function"
    },
    {
      "inputs": [
        {
          "internalType": "uint256",
          "name": "newAmount",
          "type": "uint256"
        }
      ],
      "name": "setPassiveXPAmount",
      "outputs": [],
      "stateMutability": "nonpayable",
      "type": "function"
    },
    {
      "inputs": [
        {
          "internalType": "address",
          "name": "_stakingContract",
          "type": "address"
        }
      ],
      "name": "setStakingContract",
      "outputs": [],
      "stateMutability": "nonpayable",
      "type": "function"
    },
    {
      "inputs": [
        {
          "internalType": "uint256",
          "name": "newInterval",
          "type": "uint256"
        }
      ],
      "name": "setUpdateInterval",
      "outputs": [],
      "stateMutability": "nonpayable",
      "type": "function"
    },
    {
      "inputs": [
        {
          "internalType": "uint64",
          "name": "subscriptionId",
          "type": "uint64"
        },
        {
          "internalType": "bytes32",
          "name": "newKeyHash",
          "type": "bytes32"
        }
      ],
      "name": "setVRFConfig",
      "outputs": [],
      "stateMutability": "nonpayable",
      "type": "function"
    },
    {
      "inputs": [],
      "name": "stakingContract",
      "outputs": [
        {
          "internalType": "contract ICharacterStaking",
          "name": "",
          "type": "address"
        }
      ],
      "stateMutability": "view",
      "type": "function"
    },
    {
      "inputs": [
        {
          "internalType": "bytes4",
          "name": "interfaceId",
          "type": "bytes4"
        }
      ],
      "name": "supportsInterface",
      "outputs": [
        {
          "internalType": "bool",
          "name": "",
          "type": "bool"
        }
      ],
      "stateMutability": "view",
      "type": "function"
    },
    {
      "inputs": [],
      "name": "symbol",
      "outputs": [
        {
          "internalType": "string",
          "name": "",
          "type": "string"
        }
      ],
      "stateMutability": "view",
      "type": "function"
    },
    {
      "inputs": [
        {
          "internalType": "uint256",
          "name": "tokenId",
          "type": "uint256"
        }
      ],
      "name": "tokenURI",
      "outputs": [
        {
          "internalType": "string",
          "name": "",
          "type": "string"
        }
      ],
      "stateMutability": "view",
      "type": "function"
    },
    {
      "inputs": [
        {
          "internalType": "address",
          "name": "from",
          "type": "address"
        },
        {
          "internalType": "address",
          "name": "to",
          "type": "address"
        },
        {
          "internalType": "uint256",
          "name": "tokenId",
          "type": "uint256"
        }
      ],
      "name": "transferFrom",
      "outputs": [],
      "stateMutability": "nonpayable",
      "type": "function"
    },
    {
      "inputs": [
        {
          "internalType": "address",
          "name": "newOwner",
          "type": "address"
        }
      ],
      "name": "transferOwnership",
      "outputs": [],
      "stateMutability": "nonpayable",
      "type": "function"
    },
    {
      "inputs": [],
      "name": "updateInterval",
      "outputs": [
        {
          "internalType": "uint256",
          "name": "",
          "type": "uint256"
        }
      ],
      "stateMutability": "view",
      "type": "function"
    },
    {
      "inputs": [
        {
          "internalType": "address",
          "name": "newImplementation",
          "type": "address"
        }
      ],
      "name": "upgradeTo",
      "outputs": [],
      "stateMutability": "nonpayable",
      "type": "function"
    },
    {
      "inputs": [
        {
          "internalType": "address",
          "name": "newImplementation",
          "type": "address"
        },
        {
          "internalType": "bytes",
          "name": "data",
          "type": "bytes"
        }
      ],
      "name": "upgradeToAndCall",
      "outputs": [],
      "stateMutability": "payable",
      "type": "function"
    }
  ],
  "bytecode": "0x60c0346200013757601f620046ee38819003918201601f19168301916001600160401b038311848410176200013c578084926020946040528339810103126200013757516001600160a01b038116810362000137573060805260a05260005460ff8160081c16620000e25760ff80821603620000a6575b60405161459b9081620001538239608051818181611bfb01528181611cea0152612626015260a05181612f2b0152f35b60ff90811916176000557f7f26b83ff96e1f2b6a682f133852f6798a09c465da95921460cefb3847402498602060405160ff8152a13862000076565b60405162461bcd60e51b815260206004820152602760248201527f496e697469616c697a61626c653a20636f6e747261637420697320696e697469604482015266616c697a696e6760c81b6064820152608490fd5b600080fd5b634e487b7160e01b600052604160045260246000fdfe608080604052600436101561001357600080fd5b60003560e01c90816301ffc9a7146133f75750806306fdde0314613349578063081812fc1461332b578063095ea7b3146131b157806314bcec9f146131925780631fe543e314612eb357806323b872dd14612e8f578063242a008714612de157806324f7469714612dbc578063283ef43714612d8f5780632b1d5039146127e8578063300f6f60146127be5780633659cfe6146126015780633798fe56146125e557806339a9760b146125585780633b2bcbf11461252e57806342842e0e146124fb57806342966c681461240f57806342f1181e146123c95780634585e33b146123b157806345fb99f214611f2f5780634f1ef28614611cac57806352d1902d14611be85780635d9fb0ed14611bb757806361728f3914611b985780636352211e14611b68578063674f66021461174b5780636d541952146116cd5780636e04ff0d1461167d578063707129391461163a57806370a08231146115a35780637124c68314611581578063715018a6146115245780637943c051146114c35780637ccfd7fc1461149b5780638ac00021146114705780638c2889b1146114515780638da5cb5b146114285780638fa6a559146113f357806395d89b41146113105780639a99a057146111a95780639b046ed314610e665780639dd373b914610e23578063a22cb46514610d48578063b0bebe8d14610735578063b0fb162f14610710578063b88d4fde1461069c578063be34ab4514610659578063c87b56dd146105e8578063d866c1eb14610459578063e985e9c514610403578063ee99205c146103d9578063f2d06e90146103a7578063f2fde38b14610318578063f341b140146102f6578063fd2c80ae146102d75763fe9fbb801461029257600080fd5b346102d25760203660031901126102d2576001600160a01b036102b36134a2565b16600052610162602052602060ff604060002054166040519015158152f35b600080fd5b346102d25760003660031901126102d257602061016954604051908152f35b346102d25760203660031901126102d25761030f613c32565b60043561016a55005b346102d25760203660031901126102d2576103316134a2565b610339613c32565b6001600160a01b038116156103535761035190613e67565b005b60405162461bcd60e51b815260206004820152602660248201527f4f776e61626c653a206e6577206f776e657220697320746865207a65726f206160448201526564647265737360d01b6064820152608490fd5b346102d25760203660031901126102d25760043560005261016b602052602060ff604060002054166040519015158152f35b346102d25760003660031901126102d25761016c546040516001600160a01b039091168152602090f35b346102d25760403660031901126102d25761041c6134a2565b6104246134b8565b9060018060a01b03809116600052606a60205260406000209116600052602052602060ff604060002054166040519015158152f35b346102d25760403660031901126102d25760043561047561366a565b90336000526020610162815260ff6040600020541615806105d3575b6105bb576000828152606760205260409020546001600160a01b0316156105a25781600052610160908181526064604060002054146105825761ffff809416938360005282825260ff60096040600020015460101c1661054e575b6103519484937f8e5b19b13033b7864317933923288ea03661dea494ff0864267fabc6d8d7f576936040938660005282825261052f846004876000200154613a4c565b92876000528252826004866000200155845193168352820152a2613f23565b9360968102908082046096149015171561056c5760649004936104ec565b634e487b7160e01b600052601160045260246000fd5b604051631e6c9cf760e21b81526004810184905260646024820152604490fd5b60405163263f5aeb60e21b815260048101839052602490fd5b60405163d86ad9cf60e01b8152336004820152602490fd5b506097546001600160a01b0316331415610491565b346102d25760203660031901126102d25760043560009081526067602052604090205461061f906001600160a01b031615156139bb565b600060405161062d81613533565b5261065560405161063d81613533565b60008152604051918291602083526020830190613462565b0390f35b346102d25760203660031901126102d2576106726134a2565b61067a613c32565b61016d80546001600160a01b0319166001600160a01b03909216919091179055005b346102d25760803660031901126102d2576106b56134a2565b6106bd6134b8565b90606435906044356001600160401b0383116102d257610351936106e861070b9436906004016135da565b926106fb6106f68433613a59565b6136f3565b610706838383613b21565b6143a7565b613f03565b346102d25760003660031901126102d25760206101655461ffff60405191831c168152f35b346102d2576102203660031901126102d25761074f6134a2565b6024356001600160401b0381116102d25761076e9036906004016135da565b60c0366101031901126102d25760405190610788826134ce565b6101043580151581036102d25782526101243580151581036102d25760208301526101443580151581036102d25760408301526101643560ff811681036102d25760608301526101843560ff811681036102d25760808301526101a43560ff811681036102d25760a08301526101c43560ff811681036102d257610204359283151584036102d2573360005261016260205260ff604060002054161580610d33575b6105bb5761015f54936001850161015f556108458587613ce1565b60405191610852836134e9565b6101e43583526064356020840152608435604084015260a43560608401526000608084015264ffffffffff421660a084015260443560c08401528460e084015261010083015260ff83166101208301526000610140830152151561016082015283600052610160602052604060002081518155602082015160018201556040820151600282015560608201516003820155608082015160048201556005810164ffffffffff60a08401511664ffffffffff1982541617905560c0820151600682015560e08201518051906001600160401b038211610c5857610937600784015461367b565b601f8111610cf3575b50602090601f8311600114610c7957928261016093600993610a669796600092610c6e575b50508160011b916000199060031b1c19161760078201555b600881016101008501516109a081511515839060ff801983541691151516179055565b6020810151825461ff00191690151560081b61ff00161782555b6040810151825462ff0000191690151560101b62ff000016178255606081015190825463ff00000065ff000000000060a064ff00000000608086015160201b1694015160281b169360181b169065ffffff00000019161717179055019160ff6101208201511660ff19845416178355610a4c60ff61014083015116849061ff0082549160081b169061ff001916179055565b0151815462ff0000191690151560101b62ff000016179055565b6040518060408101106001600160401b03604083011117610c58579081604085930160405260c435815260e43560208201528260005261016160205260406000209060005b60028110610c415750505060c435600052610160602052610af26009604060002001610add60ff825460081c16613a2d565b61ff0082549160081b169061ff001916179055565b60e435600052610160602052610b196009604060002001610add60ff825460081c16613a2d565b60018060a01b0392826000805160206145068339815191526040516020815280610b4a888b16956020830190613462565b0390a38160008051602061452683398151915260a06040516101e43581526064356020820152608435604082015260a435606082015260006080820152a260ff8116610c0c575b505061016d541680610ba9575b602082604051908152f35b803b156102d2576040516219366960e01b81526001600160a01b03939093166004840152602483018290526000908390604490829084905af1918215610c005760209215610b9e57610bfa90613505565b82610b9e565b6040513d6000823e3d90fd5b60207f62abbd01d3de81802f010fc26baf3cf5b43103972f88de75cd2786610807286b9160ff60405191168152a28184610b91565b815181840155869450602090910190600101610aab565b634e487b7160e01b600052604160045260246000fd5b015190508b80610965565b906007840160005260206000209160005b601f1985168110610cdb575083600993610a6697969360019361016097601f19811610610cc2575b505050811b01600782015561097d565b015160001960f88460031b161c191690558b8080610cb2565b91926020600181928685015181550194019201610c8a565b610d2390600785016000526020600020601f850160051c81019160208610610d29575b601f0160051c0190613755565b88610940565b9091508190610d16565b506097546001600160a01b031633141561082a565b346102d25760403660031901126102d257610d616134a2565b60243590811515908183036102d2576001600160a01b031691338314610dde57610db09033600052606a60205260406000208460005260205260406000209060ff801983541691151516179055565b6040519081527f17307eab39ab6107e8899845ad3d59bd9653f200f220920489ca2b5937696c3160203392a3005b60405162461bcd60e51b815260206004820152601960248201527f4552433732313a20617070726f766520746f2063616c6c6572000000000000006044820152606490fd5b346102d25760203660031901126102d257610e3c6134a2565b610e44613c32565b61016c80546001600160a01b0319166001600160a01b03909216919091179055005b346102d25760203660031901126102d2576004356000610160604051610e8b816134e9565b8281528260208201528260408201528260608201528260808201528260a08201528260c0820152606060e0820152604051610ec5816134ce565b8381528360208201528360408201528360608201528360808201528360a082015261010082015282610120820152826101408201520152610f1b81600052606760205260018060a01b0360406000205416151590565b1561119157600052610160602052604060002060405190610f3b826134e9565b805482526001810154602083015260028101546040830152600381015460608301526004810154608083015264ffffffffff60058201541660a0830152600681015460c083015260405160006007830154610f958161367b565b808452906001811690811561116f575060011461112e575b509181610fc060099360ff950382613569565b60e0850152604051610fd1816134ce565b83600883015481811615158352818160081c1615156020840152818160101c1615156040840152818160181c166060840152818160201c16608084015260281c1660a08201526101008501520154818116610120840152818160081c1661014084015260101c16151561016082015260405180916020825280516020830152602081015160408301526040810151606083015260608101516080830152608081015160a083015264ffffffffff60a08201511660c083015260c081015160e08301526101606110b260e0830151610220610100860152610240850190613462565b9160ff60a06101008301518051151561012088015260208101511515610140880152604081015115158588015282606082015116610180880152826080820151166101a08801520151166101c085015260ff610120820151166101e085015260ff61014082015116610200850152015115156102208301520390f35b9050600783016000526020600020906000915b818310611155575050810160200181610fad565b600181602092949394548385880101520191019190611141565b60ff191660208086019190915291151560051b84019091019150829050610fad565b6024906040519063263f5aeb60e21b82526004820152fd5b346102d25760803660031901126102d2576004356111c561366a565b6044359061ffff918281168091036102d257606435918383168093036102d2573360005261016260205260ff6040600020541615806112fb575b6105bb576000858152606760205260409020546001600160a01b0316156112e25791600361127761129193600261125d60008051602061452683398151915298978a6000526101609889602052600160406000200154911690613a4c565b896000528760205260406000209060018201550154613a4c565b866000528460205260406000209060028201550154613a4c565b600084815260209283526040908190206003810183905580546001820154600283015460049093015484519283529582015291820152606081019190915260808101919091528060a081015b0390a2005b60405163263f5aeb60e21b815260048101869052602490fd5b506097546001600160a01b03163314156111ff565b346102d25760003660031901126102d2576040516066546000826113338361367b565b91828252602093600190856001821691826000146113d3575050600114611376575b5061136292500383613569565b610655604051928284938452830190613462565b84915060666000527f46501879b8ca8525e8c2fd519e2fbfcfa2ebea26501294aa02cbfcfb12e94354906000915b8583106113bb575050611362935082010185611355565b805483890185015287945086939092019181016113a4565b60ff19168582015261136295151560051b85010192508791506113559050565b346102d25760203660031901126102d257600435600052610167602052602060018060a01b0360406000205416604051908152f35b346102d25760003660031901126102d2576097546040516001600160a01b039091168152602090f35b346102d25760003660031901126102d257602061016a54604051908152f35b346102d25760003660031901126102d25760206001600160401b036101635460a01c16604051908152f35b346102d25760003660031901126102d257602063ffffffff6101655460301c16604051908152f35b346102d25760403660031901126102d2576004356001600160401b03811681036102d2576114ef613c32565b610163805467ffffffffffffffff60a01b191660a09290921b67ffffffffffffffff60a01b1691909117905560243561016455005b346102d25760003660031901126102d25761153d613c32565b609780546001600160a01b031981169091556000906001600160a01b03167f8be0079c531659141344cd1fd0a4f28419497f9722a3daafe3b4186f6b6457e08280a3005b346102d25760203660031901126102d25761159a613c32565b60043561016955005b346102d25760203660031901126102d2576001600160a01b036115c46134a2565b1680156115e35760005260686020526020604060002054604051908152f35b60405162461bcd60e51b815260206004820152602960248201527f4552433732313a2061646472657373207a65726f206973206e6f7420612076616044820152683634b21037bbb732b960b91b6064820152608490fd5b346102d25760203660031901126102d2576116536134a2565b61165b613c32565b6001600160a01b0316600090815261016260205260409020805460ff19169055005b346102d25761168b36613621565b505061169a610168544261382e565b610169541115604051906116ad82613533565b600082526106556040519283928352604060208401526040830190613462565b346102d25760203660031901126102d2576004356000818152606760205260409020546001600160a01b03161561119157600052610160602052604060002061172d6117226001830154600284015490613a4c565b600383015490613a4c565b90549081810291818304149015171561056c57602090604051908152f35b346102d25760403660031901126102d2576117646134a2565b6024356001600160401b0381116102d2576117839036906004016135da565b9061178c613c32565b611794613c8a565b61015f908154916001830190556117ab8282613ce1565b604051926117b8846134ce565b6000845260006020850152600060408501526000606085015260006080850152600060a0850152604051936117ec856134e9565b60018552600a6020860152600a6040860152600a60608601526000608086015264ffffffffff421660a0860152600160c08601528160e08601526101008501526000610120850152600061014085015260006101608501528260005261016060205260406000209380518555602081015160018601556040810151600286015560608101516003860155608081015160048601556005850164ffffffffff60a08301511664ffffffffff1982541617905560c0810151600686015560e08101519485516001600160401b038111610c58576118ca600783015461367b565b601f8111611b33575b506020601f8211600114611aaf57926101606009602096948461195a956119899b9a986119f79d600092611aa4575b50508160011b916000199060031b1c19161760078201555b6008810161010085015161193d81511515839060ff801983541691151516179055565b808a0151825461ff00191690151560081b61ff00161782556109ba565b8360008051602061450683398151915260018060a01b0380941696879360405191829188835288830190613462565b0390a36101635461016454610165546040516305d3b1d360e41b8152600481019290925260a083901c6001600160401b0316602483015280851c61ffff16604483015263ffffffff808216606484015260309190911c166084820152958692839160009190839060a4820190565b0393165af1918215610c0057600092611a6f575b602093508260005261016684528160406000205561016784526040600020906001600160601b0360a01b82541617905580604051927fb981232058966dc3063297b2c151c1bcd151aa5570a42d911faac836176f55b5600080a3600161012d558152f35b91506020833d602011611a9c575b81611a8a60209383613569565b810103126102d2576020925191611a0b565b3d9150611a7d565b015190508d80611902565b6007830160005260206000209760005b601f1984168110611b1b57506009602096946001856119f79c6119899c9b99966101609661195a99601f19811610611b02575b505050811b01600782015561191a565b015160001960f88460031b161c191690558d8080611af2565b828201518a5560019099019860209283019201611abf565b611b6290600784016000526020600020601f840160051c81019160208510610d2957601f0160051c0190613755565b876118d3565b346102d25760203660031901126102d2576020611b86600435613a07565b6040516001600160a01b039091168152f35b346102d25760003660031901126102d257602061016454604051908152f35b346102d25760203660031901126102d25760043560ff811681036102d257611be060209161399b565b604051908152f35b346102d25760003660031901126102d2577f00000000000000000000000000000000000000000000000000000000000000006001600160a01b03163003611c415760206040516000805160206145468339815191528152f35b60405162461bcd60e51b815260206004820152603860248201527f555550535570677261646561626c653a206d757374206e6f742062652063616c60448201527f6c6564207468726f7567682064656c656761746563616c6c00000000000000006064820152608490fd5b60403660031901126102d257611cc06134a2565b6024356001600160401b0381116102d257611cdf9036906004016135da565b906001600160a01b037f0000000000000000000000000000000000000000000000000000000000000000811690611d183083141561376c565b611d356000805160206145468339815191529282845416146137cd565b611d3d613c32565b7f4910fdfa16fed3260ed0e7147f7cc6da11a60208b5b9406d12a635614ffd91435460ff1615611d735750506103519150614161565b6040516352d1902d60e01b81526020939291831691908481600481865afa60009181611f00575b50611dfb5760405162461bcd60e51b815260048101869052602e60248201527f45524331393637557067726164653a206e657720696d706c656d656e7461746960448201526d6f6e206973206e6f74205555505360901b6064820152608490fd5b03611ea957611e0982614161565b7fbc7cd75a20ee27fd9adebab32041f755214dbc6bffa90cc0225b39da2e5c2d3b600080a2825115801590611ea1575b611e3f57005b6000806103519460405194611e538661354e565b602786527f416464726573733a206c6f772d6c6576656c2064656c65676174652063616c6c81870152660819985a5b195960ca1b604087015281519101845af4611e9b614285565b9161446c565b506001611e39565b60405162461bcd60e51b815260048101849052602960248201527f45524331393637557067726164653a20756e737570706f727465642070726f786044820152681a58589b195555525160ba1b6064820152608490fd5b9091508581813d8311611f28575b611f188183613569565b810103126102d257519087611d9a565b503d611f0e565b346102d25760a03660031901126102d2576001600160401b036004358181116102d257611f609036906004016135da565b6024358281116102d257611f789036906004016135da565b906044356001600160a01b038116908190036102d25760643584811681036102d2576000549460ff94858760081c1615948580966123a5575b801561238f575b1561233357600197868960ff19831617600055612321575b50611fea8760005460081c16611fe581613e07565b613e07565b8051838111610c585780611fff60655461367b565b92601f938481116122d4575b5060209084831160011461225257600092612247575b5050600019600383901b1c191690891b176065555b8151928311610c5857829161204c60665461367b565b8281116121f0575b50602091831160011461216e57600092612163575b5050600019600383901b1c191690861b176066555b6120928460005460081c16611fe581613e07565b61209b33613e67565b6120b9600054948560081c166120b081613e07565b611fe581613e07565b61012d85905561016380546001600160e01b03191690921760a09190911b67ffffffffffffffff60a01b1617905560843561016455610165805469ffffffffffffffffffff191666030003001e84801790556201518061016955600561016a55426101685561015f80548401905561212d57005b61ff0019166000556040519081527f7f26b83ff96e1f2b6a682f133852f6798a09c465da95921460cefb384740249890602090a1005b015190508780612069565b90889350601f1983169160666000527f46501879b8ca8525e8c2fd519e2fbfcfa2ebea26501294aa02cbfcfb12e943549260005b8181106121d8575084116121bf575b505050811b0160665561207e565b015160001960f88460031b161c191690558780806121b1565b8284015185558b9690940193602093840193016121a2565b6122389060666000527f46501879b8ca8525e8c2fd519e2fbfcfa2ebea26501294aa02cbfcfb12e943548480870160051c8201926020881061223e575b0160051c0190613755565b89612054565b9250819261222d565b015190508a80612021565b908b9350601f1983169160656000527f8ff97419363ffd7000167f130ef7168fbea05faf9251824ca5043f113cc6a7c79260005b8181106122bc575084116122a3575b505050811b01606555612036565b015160001960f88460031b161c191690558a8080612295565b8284015185558e969094019360209384019301612286565b61231b9060656000527f8ff97419363ffd7000167f130ef7168fbea05faf9251824ca5043f113cc6a7c78680860160051c8201926020871061223e570160051c0190613755565b8b61200b565b61ffff19166101011760005588611fd0565b60405162461bcd60e51b815260206004820152602e60248201527f496e697469616c697a61626c653a20636f6e747261637420697320616c72656160448201526d191e481a5b9a5d1a585b1a5e995960921b6064820152608490fd5b50303b158015611fb85750600187891614611fb8565b50600187891610611fb1565b346102d2576123bf36613621565b505061035161383b565b346102d25760203660031901126102d2576123e26134a2565b6123ea613c32565b6001600160a01b0316600090815261016260205260409020805460ff19166001179055005b346102d25760203660031901126102d2576004353360005261016260205260ff6040600020541615806124e6575b6105bb576000818152606760205260409020546001600160a01b0316156111915761246781613a07565b50600061247382613a07565b828252606960205260408220906001600160601b0360a01b9182815416905560018060a01b031690818352606860205260408320831981540190558383526067602052604083209081541690557fddf252ad1be2c89b69c2b068fc378daa952ba7f163c4a11628f55a4df523b3ef8280a4005b506097546001600160a01b031633141561243d565b346102d25761035161070b61250f3661358a565b906040519261251d84613533565b600084526106fb6106f68433613a59565b346102d25760003660031901126102d257610163546040516001600160a01b039091168152602090f35b346102d25760203660031901126102d25760043561257581613a07565b336001600160a01b03909116036125c7578060005261016b6020526040600020600160ff198254161790557f4d42605dcaa7afd3699e20a432633fd4aadd03c67f9229af729028414f70dab2600080a2005b604490604051906331def1c160e01b82526004820152336024820152fd5b346102d25760003660031901126102d257602060405160648152f35b346102d2576020806003193601126102d25761261b6134a2565b6001600160a01b03917f000000000000000000000000000000000000000000000000000000000000000083166126533082141561376c565b6126706000805160206145468339815191529185835416146137cd565b612678613c32565b6040519361268585613533565b600085527f4910fdfa16fed3260ed0e7147f7cc6da11a60208b5b9406d12a635614ffd91435460ff16156126c0575050506103519150614161565b83929316906040516352d1902d60e01b81528481600481865afa6000918161278f575b506127445760405162461bcd60e51b815260048101869052602e60248201527f45524331393637557067726164653a206e657720696d706c656d656e7461746960448201526d6f6e206973206e6f74205555505360901b6064820152608490fd5b03611ea95761275282614161565b7fbc7cd75a20ee27fd9adebab32041f755214dbc6bffa90cc0225b39da2e5c2d3b600080a282511580159061278757611e3f57005b506000611e39565b9091508581813d83116127b7575b6127a78183613569565b810103126102d2575190876126e3565b503d61279d565b346102d25760003660031901126102d25761016d546040516001600160a01b039091168152602090f35b346102d25760203660031901126102d2576004356001600160401b0381116102d2576128189036906004016135da565b612820613c32565b612828613c8a565b80516020820120662bb0b93934b7b960c91b602060405161284881613518565b6007815201527f825470cb7dd6b42e6dc592d606211ff8ba1aca3dfc64603420140f1c5303a1aa81148015612d4a575b8015612d04575b7f27357f16c56a4bedc010b55a80e7bc735322c33af2e3d526af8684441ae3cc98906040518091606082526128b76060830187613462565b9460208301521593841560408301520390a1612cdb5761015f908154916001830190556128e48233613ce1565b6040516128f0816134ce565b6000815260006020820152600060408201526000606082015260006080820152600060a082015260405190612924826134e9565b60018252600a6020830152600a6040830152600a60608301526000608083015264ffffffffff421660a0830152600160c08301528260e083015261010082015260006101208201526000610140820152600061016082015282600052610160602052604060002081518155602082015160018201556040820151600282015560608201516003820155608082015160048201556005810164ffffffffff60a08401511664ffffffffff1982541617905560c0820151600682015560e08201518051906001600160401b038211610c5857612a01600784015461367b565b601f8111612ca6575b50602090601f8311600114612c2d57928261016093600993612a689796600092612c225750508160011b916000199060031b1c1916176007820155600881016101008501516109a081511515839060ff801983541691151516179055565b6101635461016454610165546040516305d3b1d360e41b8152600481019290925260a083901c6001600160401b03166024830152602081811c61ffff16604484015263ffffffff808316606485015260309290921c90911660848301526001600160a01b0393928290816000878260a481010393165af18015610c00578491600091612bdf575b508060008051602061450683398151915291600052610166602052826040600020556101676020526040600020336001600160601b0360a01b82541617905582604051917fb981232058966dc3063297b2c151c1bcd151aa5570a42d911faac836176f55b5600080a36020815280612b6c33956020830190613462565b0390a361016d54169081612b8c575b602090600161012d55604051908152f35b813b156102d2576040516219366960e01b815233600482015260248101829052916000908390604490829084905af1918215610c0057602092612bd0575b50612b7b565b612bd990613505565b82612bca565b9150506020813d602011612c1a575b81612bfb60209383613569565b810103126102d257518390600080516020614506833981519152612aef565b3d9150612bee565b015190508980610965565b906007840160005260206000209160005b601f1985168110612c8e575083600993612a6897969360019361016097601f19811610612c7557505050811b01600782015561097d565b015160001960f88460031b161c19169055898080610cb2565b91926020600181928685015181550194019201612c3e565b612cd590600785016000526020600020601f850160051c81019160208610610d2957601f0160051c0190613755565b86612a0a565b604051630189000f60e61b815260206004820152908190612d00906024830190613462565b0390fd5b5064526f67756560d81b6020604051612d1c81613518565b6005815201527f82e11a8b1211ad30078f4b2a88f90fda53d9d49f3a8042a6bc1ee16e72af12bd811461287f565b50634d61676560e01b6020604051612d6181613518565b6004815201527fb936914b773d138c74602e072785390a10afdc3ebde9f708a7edae9c31abf84d8114612878565b346102d25760203660031901126102d2576004356000526101666020526020604060002054604051908152f35b346102d25760003660031901126102d257602063ffffffff6101655416604051908152f35b346102d2576020806003193601126102d25760043560408051612e0381613518565b3690376000818152606760205260409020546001600160a01b0316156111915760005261016160205260406000206040519081836000915b60028310612e78575083612e4e81613518565b604051916000835b60028210612e6357604085f35b82806001928651815201940191019092612e56565b600191829185548152019301910190918490612e3b565b346102d257610351612ea03661358a565b91612eae6106f68433613a59565b613b21565b346102d25760403660031901126102d25760246001600160401b0381358181116102d257366023820112156102d2578060040135928284116130d1578360051b9260209260405195612f0785870188613569565b8652838601838196830101913683116102d25784869101915b8383106131825750507f00000000000000000000000000000000000000000000000000000000000000006001600160a01b03169150503381900361316557506004356000908152610166845260408082205480835260676020529120549094906001600160a01b03161561314d578551156131385760339051069260328401809411613123578551926001936001101561310f57603360408801510696603288018098116130e5578051600210156130fa57606060339101510693603285018095116130e557866000526101609384845260406000209087600183015589600283015586600380930155604051936060850191858310908311176130d1575060405286835288848401528560408401526040519283906000915b8383106130be5750896000805160206145268339815191528a8a6112dd8f8c8c877ffcafc78c99931eebe38b6f7f6dfcc596e6de09204b836f5b0eb5e4935366388260608fa287600052526040600020926004845494015491604051958695869192608093969594919660a084019784526020840152604083015260608201520152565b815181529184019190860190860161303a565b634e487b7160e01b60009081526041600452fd5b50634e487b7160e01b60009081526011600452fd5b50634e487b7160e01b60009081526032600452fd5b634e487b7160e01b60009081526032600452fd5b82634e487b7160e01b60005260116004526000fd5b82634e487b7160e01b60005260326004526000fd5b60405163263f5aeb60e21b8152600481018690528390fd5b826044916040519163073e64fd60e21b8352336004840152820152fd5b8235815291810191869101612f20565b346102d25760003660031901126102d257602061016854604051908152f35b346102d25760403660031901126102d2576131ca6134a2565b602435906001600160a01b0380806131e185613a07565b169216918083146132dc578033149081156132b7575b501561324c57600083815260696020526040902080546001600160a01b0319168317905561322483613a07565b167f8c5be1e5ebec7d5bd14f71427d1e84f3dd0314c0f7b2291e5b200ac8c7c3b925600080a4005b60405162461bcd60e51b815260206004820152603d60248201527f4552433732313a20617070726f76652063616c6c6572206973206e6f7420746f60448201527f6b656e206f776e6572206f7220617070726f76656420666f7220616c6c0000006064820152608490fd5b9050600052606a60205260406000203360005260205260ff60406000205416846131f7565b60405162461bcd60e51b815260206004820152602160248201527f4552433732313a20617070726f76616c20746f2063757272656e74206f776e656044820152603960f91b6064820152608490fd5b346102d25760203660031901126102d2576020611b866004356136b5565b346102d25760003660031901126102d25760405160655460008261336c8361367b565b91828252602093600190856001821691826000146113d357505060011461339a575061136292500383613569565b84915060656000527f8ff97419363ffd7000167f130ef7168fbea05faf9251824ca5043f113cc6a7c7906000915b8583106133df575050611362935082010185611355565b805483890185015287945086939092019181016133c8565b346102d25760203660031901126102d2576004359063ffffffff60e01b82168092036102d2576020916380ac58cd60e01b8114908115613451575b8115613440575b5015158152f35b6301ffc9a760e01b14905083613439565b635b5e139f60e01b81149150613432565b919082519283825260005b84811061348e575050826000602080949584010152601f8019910116010190565b60208183018101518483018201520161346d565b600435906001600160a01b03821682036102d257565b602435906001600160a01b03821682036102d257565b60c081019081106001600160401b03821117610c5857604052565b61018081019081106001600160401b03821117610c5857604052565b6001600160401b038111610c5857604052565b604081019081106001600160401b03821117610c5857604052565b602081019081106001600160401b03821117610c5857604052565b606081019081106001600160401b03821117610c5857604052565b90601f801991011681019081106001600160401b03821117610c5857604052565b60609060031901126102d2576001600160a01b039060043582811681036102d2579160243590811681036102d2579060443590565b6001600160401b038111610c5857601f01601f191660200190565b81601f820112156102d2578035906135f1826135bf565b926135ff6040519485613569565b828452602083830101116102d257816000926020809301838601378301015290565b9060206003198301126102d2576004356001600160401b03928382116102d257806023830112156102d25781600401359384116102d257602484830101116102d2576024019190565b6024359061ffff821682036102d257565b90600182811c921680156136ab575b602083101461369557565b634e487b7160e01b600052602260045260246000fd5b91607f169161368a565b6000818152606760205260409020546136d8906001600160a01b031615156139bb565b6000908152606960205260409020546001600160a01b031690565b156136fa57565b60405162461bcd60e51b815260206004820152602d60248201527f4552433732313a2063616c6c6572206973206e6f7420746f6b656e206f776e6560448201526c1c881bdc88185c1c1c9bdd9959609a1b6064820152608490fd5b818110613760575050565b60008155600101613755565b1561377357565b60405162461bcd60e51b815260206004820152602c60248201527f46756e6374696f6e206d7573742062652063616c6c6564207468726f7567682060448201526b19195b1959d85d1958d85b1b60a21b6064820152608490fd5b156137d457565b60405162461bcd60e51b815260206004820152602c60248201527f46756e6374696f6e206d7573742062652063616c6c6564207468726f7567682060448201526b6163746976652070726f787960a01b6064820152608490fd5b9190820391821161056c57565b61016861384981544261382e565b61016954116139985742905561015f54600019810190811161056c5760015b8181111561389e5750507f94af253de69550dc89f661ee40c3f9ca744b642089664d2d8f145f393a37903c6020604051428152a1565b6000818152606760205260409020546138d291906001600160a01b0316151580613980575b80613971575b6138d757613df8565b613868565b806000818152610160906020908282526040808220549360648510613902575b505050505050613df8565b6139357f3324f29787149e61cb5cf2ab3ee27d3d2f166aa4d1e8290ff3e6a2568dfa87a795600a61016a54910490613a4c565b928681528185528260049161394f86848484200154613a4c565b93898252875220015551908152a261396681613f23565b8038808080806138f7565b5061397b816141f1565b6138c9565b5060ff6040600083815261016b6020522054166138c3565b50565b60ff1680156139b5576064810290810460640361056c5790565b50600090565b156139c257565b60405162461bcd60e51b815260206004820152601860248201527f4552433732313a20696e76616c696420746f6b656e20494400000000000000006044820152606490fd5b6000908152606760205260409020546001600160a01b0316613a2a8115156139bb565b90565b60ff1660ff811461056c5760010190565b906002820180921161056c57565b9190820180921161056c57565b906001600160a01b038080613a6d84613a07565b16931691838314938415613aa0575b508315613a8a575b50505090565b613a96919293506136b5565b1614388080613a84565b909350600052606a60205260406000208260005260205260ff604060002054169238613a7c565b15613ace57565b60405162461bcd60e51b815260206004820152602560248201527f4552433732313a207472616e736665722066726f6d20696e636f72726563742060448201526437bbb732b960d91b6064820152608490fd5b90613b4991613b2f84613a07565b6001600160a01b0393918416928492909183168414613ac7565b16918215613be15781613b6691613b5f86613a07565b1614613ac7565b7fddf252ad1be2c89b69c2b068fc378daa952ba7f163c4a11628f55a4df523b3ef60008481526069602052604081206001600160601b0360a01b9081815416905583825260686020526040822060001981540190558482526040822060018154019055858252606760205284604083209182541617905580a4565b60405162461bcd60e51b8152602060048201526024808201527f4552433732313a207472616e7366657220746f20746865207a65726f206164646044820152637265737360e01b6064820152608490fd5b6097546001600160a01b03163303613c4657565b606460405162461bcd60e51b815260206004820152602060248201527f4f776e61626c653a2063616c6c6572206973206e6f7420746865206f776e65726044820152fd5b61012d6002815414613c9c5760029055565b60405162461bcd60e51b815260206004820152601f60248201527f5265656e7472616e637947756172643a207265656e7472616e742063616c6c006044820152606490fd5b604051613ced81613533565b6000808252926001600160a01b038316928315613db4578161070b94613db296613d35613d2f84600052606760205260018060a01b0360406000205416151590565b15614420565b600083815260676020526040902054613d58906001600160a01b03161515613d2f565b81815260686020526040812060018154019055828152606760205260408120826001600160601b0360a01b8254161790557fddf252ad1be2c89b69c2b068fc378daa952ba7f163c4a11628f55a4df523b3ef8180a46142b5565b565b606460405162461bcd60e51b815260206004820152602060248201527f4552433732313a206d696e7420746f20746865207a65726f20616464726573736044820152fd5b600019811461056c5760010190565b15613e0e57565b60405162461bcd60e51b815260206004820152602b60248201527f496e697469616c697a61626c653a20636f6e7472616374206973206e6f74206960448201526a6e697469616c697a696e6760a81b6064820152608490fd5b609780546001600160a01b039283166001600160a01b0319821681179092559091167f8be0079c531659141344cd1fd0a4f28419497f9722a3daafe3b4186f6b6457e0600080a3565b60809060208152603260208201527f4552433732313a207472616e7366657220746f206e6f6e20455243373231526560408201527131b2b4bb32b91034b6b83632b6b2b73a32b960711b60608201520190565b15613f0a57565b60405162461bcd60e51b815280612d0060048201613eb0565b906000828152610160602081815260ff9460409460ff86862054165b82865284845286862054606490818110156141425789613f5f911661399b565b91848852868652600492838a8a200154818110156000146140e15790613f849161382e565b8589528787528989209084820155613f9c8154613df8565b90558488528686526001808a8a200154906002918281018091116140ce57878b528989528b8b209182015581015486927f66833f6d7d7a01eaed9fb21eb9cc54f0fb9497fa9251a6c0773372c8d3e0aa0c928c92613ff990613a3e565b858d528b8b52838d2091820155614014600380920154613a3e565b858d528b8b52838d2091820155548d83519216825289820152a261016d546001600160a01b039190821680614059575b50505050818552838352868686205416613f3f565b61406286613a07565b90868a528888528a8a2054813b156140ca578a9493929185918d5197889687956362809c1f60e01b8752169085015289602485015260448401525af180156140c0576140b1575b808080614044565b6140ba90613505565b386140a9565b87513d88823e3d90fd5b8a80fd5b634e487b7160e01b8b526011865260248bfd5b505050505095509391926000805160206145268339815191529383925b868352522080546001820154600283015460038401546004909401549451928352602083019190915260408201526060810191909152608081019190915260a090a2565b50505095509391926000805160206145268339815191529383926140fe565b803b156141965760008051602061454683398151915280546001600160a01b0319166001600160a01b03909216919091179055565b60405162461bcd60e51b815260206004820152602d60248201527f455243313936373a206e657720696d706c656d656e746174696f6e206973206e60448201526c1bdd08184818dbdb9d1c9858dd609a1b6064820152608490fd5b61016c546001600160a01b039190821690811561427d57602090602460405180948193631caaa48760e01b835260048301525afa908115610c005760009161423b575b5016151590565b6020813d602011614275575b8161425460209383613569565b81010312614271575190828216820361426e575038614234565b80fd5b5080fd5b3d9150614247565b505050600090565b3d156142b0573d90614296826135bf565b916142a46040519384613569565b82523d6000602084013e565b606090565b909190803b1561439f576020604051809281630a85bd0160e11b96878252336004830152816142fe60009889938460248501526044840152608060648401526084830190613462565b03926001600160a01b03165af190829082614356575b505061434857614322614285565b805190816143435760405162461bcd60e51b815280612d0060048201613eb0565b602001fd5b6001600160e01b0319161490565b909192506020813d602011614397575b8161437360209383613569565b810103126142715751906001600160e01b03198216820361426e5750903880614314565b3d9150614366565b505050600190565b9290803b15614417576143f79160209160018060a01b039460405180958194829389630a85bd0160e11b9b8c86523360048701521660248501526044840152608060648401526084830190613462565b03916000968791165af19082908261435657505061434857614322614285565b50505050600190565b1561442757565b60405162461bcd60e51b815260206004820152601c60248201527f4552433732313a20746f6b656e20616c7265616479206d696e746564000000006044820152606490fd5b919290156144ce5750815115614480575090565b3b156144895790565b60405162461bcd60e51b815260206004820152601d60248201527f416464726573733a2063616c6c20746f206e6f6e2d636f6e74726163740000006044820152606490fd5b8251909150156144e15750805190602001fd5b60405162461bcd60e51b815260206004820152908190612d0090602483019061346256fed4e4c9b380a2c3a576b6a6c5114f0016581853cc194219a4fb39daf38201c2e887b744df0b4e14ea5f7e2161702b297042009e08ce7dc25bfb48ba7b167438dc360894a13ba1a3210667c828492db98dca3e2076cc3735a920a3ca505d382bbca26469706673582212206b8a13ab79fb9b9f16dafb3ccac22cc588c233d62ad7c29d83f8699f106e067364736f6c63430008180033",
  "linkReferences": {},
  "deployedLinkReferences": {}
}